{
  "_format": "hh-sol-artifact-1",
  "contractName": "FudFarmGenesis",
  "sourceName": "contracts/FudFarmGenesis.sol",
  "abi": [
    {
      "inputs": [
        {
          "internalType": "string",
          "name": "name_",
          "type": "string"
        },
        {
          "internalType": "string",
          "name": "symbol_",
          "type": "string"
        },
        {
          "internalType": "string",
          "name": "baseURI_",
          "type": "string"
        },
        {
          "internalType": "address",
          "name": "_fudFarmAddress",
          "type": "address"
        },
        {
          "internalType": "address",
          "name": "_cropAddress",
          "type": "address"
        },
        {
          "internalType": "address",
          "name": "_stakeAddress",
          "type": "address"
        }
      ],
      "stateMutability": "nonpayable",
      "type": "constructor"
    },
    {
      "anonymous": false,
      "inputs": [
        {
          "indexed": true,
          "internalType": "address",
          "name": "owner",
          "type": "address"
        },
        {
          "indexed": true,
          "internalType": "address",
          "name": "approved",
          "type": "address"
        },
        {
          "indexed": true,
          "internalType": "uint256",
          "name": "tokenId",
          "type": "uint256"
        }
      ],
      "name": "Approval",
      "type": "event"
    },
    {
      "anonymous": false,
      "inputs": [
        {
          "indexed": true,
          "internalType": "address",
          "name": "owner",
          "type": "address"
        },
        {
          "indexed": true,
          "internalType": "address",
          "name": "operator",
          "type": "address"
        },
        {
          "indexed": false,
          "internalType": "bool",
          "name": "approved",
          "type": "bool"
        }
      ],
      "name": "ApprovalForAll",
      "type": "event"
    },
    {
      "anonymous": false,
      "inputs": [
        {
          "indexed": true,
          "internalType": "address",
          "name": "sender",
          "type": "address"
        },
        {
          "indexed": false,
          "internalType": "uint256",
          "name": "startWith",
          "type": "uint256"
        },
        {
          "indexed": false,
          "internalType": "uint256",
          "name": "times",
          "type": "uint256"
        }
      ],
      "name": "Mint",
      "type": "event"
    },
    {
      "anonymous": false,
      "inputs": [
        {
          "indexed": true,
          "internalType": "address",
          "name": "previousOwner",
          "type": "address"
        },
        {
          "indexed": true,
          "internalType": "address",
          "name": "newOwner",
          "type": "address"
        }
      ],
      "name": "OwnershipTransferred",
      "type": "event"
    },
    {
      "anonymous": false,
      "inputs": [
        {
          "indexed": true,
          "internalType": "address",
          "name": "from",
          "type": "address"
        },
        {
          "indexed": true,
          "internalType": "address",
          "name": "to",
          "type": "address"
        },
        {
          "indexed": true,
          "internalType": "uint256",
          "name": "tokenId",
          "type": "uint256"
        }
      ],
      "name": "Transfer",
      "type": "event"
    },
    {
      "inputs": [
        {
          "internalType": "address[]",
          "name": "_addresses",
          "type": "address[]"
        }
      ],
      "name": "addToWhitelist",
      "outputs": [],
      "stateMutability": "nonpayable",
      "type": "function"
    },
    {
      "inputs": [
        {
          "internalType": "address",
          "name": "to",
          "type": "address"
        },
        {
          "internalType": "uint256",
          "name": "tokenId",
          "type": "uint256"
        }
      ],
      "name": "approve",
      "outputs": [],
      "stateMutability": "nonpayable",
      "type": "function"
    },
    {
      "inputs": [
        {
          "internalType": "address",
          "name": "owner",
          "type": "address"
        }
      ],
      "name": "balanceOf",
      "outputs": [
        {
          "internalType": "uint256",
          "name": "",
          "type": "uint256"
        }
      ],
      "stateMutability": "view",
      "type": "function"
    },
    {
      "inputs": [],
      "name": "baseURI",
      "outputs": [
        {
          "internalType": "string",
          "name": "",
          "type": "string"
        }
      ],
      "stateMutability": "view",
      "type": "function"
    },
    {
      "inputs": [],
      "name": "contractAddress",
      "outputs": [
        {
          "internalType": "address",
          "name": "",
          "type": "address"
        }
      ],
      "stateMutability": "view",
      "type": "function"
    },
    {
      "inputs": [],
      "name": "cropAddress",
      "outputs": [
        {
          "internalType": "contract IERC20",
          "name": "",
          "type": "address"
        }
      ],
      "stateMutability": "view",
      "type": "function"
    },
    {
      "inputs": [],
      "name": "cropPrice",
      "outputs": [
        {
          "internalType": "uint256",
          "name": "",
          "type": "uint256"
        }
      ],
      "stateMutability": "view",
      "type": "function"
    },
    {
      "inputs": [
        {
          "internalType": "uint256",
          "name": "_times",
          "type": "uint256"
        }
      ],
      "name": "devMint",
      "outputs": [],
      "stateMutability": "nonpayable",
      "type": "function"
    },
    {
      "inputs": [],
      "name": "fudFarmAddress",
      "outputs": [
        {
          "internalType": "contract IERC721",
          "name": "",
          "type": "address"
        }
      ],
      "stateMutability": "view",
      "type": "function"
    },
    {
      "inputs": [
        {
          "internalType": "uint256",
          "name": "tokenId",
          "type": "uint256"
        }
      ],
      "name": "getApproved",
      "outputs": [
        {
          "internalType": "address",
          "name": "",
          "type": "address"
        }
      ],
      "stateMutability": "view",
      "type": "function"
    },
    {
      "inputs": [
        {
          "internalType": "address",
          "name": "owner",
          "type": "address"
        },
        {
          "internalType": "address",
          "name": "operator",
          "type": "address"
        }
      ],
      "name": "isApprovedForAll",
      "outputs": [
        {
          "internalType": "bool",
          "name": "",
          "type": "bool"
        }
      ],
      "stateMutability": "view",
      "type": "function"
    },
    {
      "inputs": [
        {
          "internalType": "uint256",
          "name": "_times",
          "type": "uint256"
        }
      ],
      "name": "mint",
      "outputs": [],
      "stateMutability": "payable",
      "type": "function"
    },
    {
      "inputs": [],
      "name": "name",
      "outputs": [
        {
          "internalType": "string",
          "name": "",
          "type": "string"
        }
      ],
      "stateMutability": "view",
      "type": "function"
    },
    {
      "inputs": [],
      "name": "owner",
      "outputs": [
        {
          "internalType": "address",
          "name": "",
          "type": "address"
        }
      ],
      "stateMutability": "view",
      "type": "function"
    },
    {
      "inputs": [
        {
          "internalType": "uint256",
          "name": "tokenId",
          "type": "uint256"
        }
      ],
      "name": "ownerOf",
      "outputs": [
        {
          "internalType": "address",
          "name": "",
          "type": "address"
        }
      ],
      "stateMutability": "view",
      "type": "function"
    },
    {
      "inputs": [],
      "name": "presaleMaxWallet",
      "outputs": [
        {
          "internalType": "uint256",
          "name": "",
          "type": "uint256"
        }
      ],
      "stateMutability": "view",
      "type": "function"
    },
    {
      "inputs": [
        {
          "internalType": "uint256",
          "name": "_times",
          "type": "uint256"
        },
        {
          "internalType": "uint256",
          "name": "_cropAmount",
          "type": "uint256"
        }
      ],
      "name": "presaleMint",
      "outputs": [],
      "stateMutability": "nonpayable",
      "type": "function"
    },
    {
      "inputs": [],
      "name": "presaleTotal",
      "outputs": [
        {
          "internalType": "uint256",
          "name": "",
          "type": "uint256"
        }
      ],
      "stateMutability": "view",
      "type": "function"
    },
    {
      "inputs": [
        {
          "internalType": "address",
          "name": "",
          "type": "address"
        }
      ],
      "name": "presaleWhitelist",
      "outputs": [
        {
          "internalType": "bool",
          "name": "",
          "type": "bool"
        }
      ],
      "stateMutability": "view",
      "type": "function"
    },
    {
      "inputs": [],
      "name": "price",
      "outputs": [
        {
          "internalType": "uint256",
          "name": "",
          "type": "uint256"
        }
      ],
      "stateMutability": "view",
      "type": "function"
    },
    {
      "inputs": [],
      "name": "publicMaxWallet",
      "outputs": [
        {
          "internalType": "uint256",
          "name": "",
          "type": "uint256"
        }
      ],
      "stateMutability": "view",
      "type": "function"
    },
    {
      "inputs": [
        {
          "internalType": "uint256",
          "name": "_times",
          "type": "uint256"
        },
        {
          "internalType": "uint256",
          "name": "_cropAmount",
          "type": "uint256"
        }
      ],
      "name": "publicMint",
      "outputs": [],
      "stateMutability": "nonpayable",
      "type": "function"
    },
    {
      "inputs": [],
      "name": "renounceOwnership",
      "outputs": [],
      "stateMutability": "nonpayable",
      "type": "function"
    },
    {
      "inputs": [
        {
          "internalType": "address",
          "name": "from",
          "type": "address"
        },
        {
          "internalType": "address",
          "name": "to",
          "type": "address"
        },
        {
          "internalType": "uint256",
          "name": "tokenId",
          "type": "uint256"
        }
      ],
      "name": "safeTransferFrom",
      "outputs": [],
      "stateMutability": "nonpayable",
      "type": "function"
    },
    {
      "inputs": [
        {
          "internalType": "address",
          "name": "from",
          "type": "address"
        },
        {
          "internalType": "address",
          "name": "to",
          "type": "address"
        },
        {
          "internalType": "uint256",
          "name": "tokenId",
          "type": "uint256"
        },
        {
          "internalType": "bytes",
          "name": "_data",
          "type": "bytes"
        }
      ],
      "name": "safeTransferFrom",
      "outputs": [],
      "stateMutability": "nonpayable",
      "type": "function"
    },
    {
      "inputs": [
        {
          "internalType": "address",
          "name": "operator",
          "type": "address"
        },
        {
          "internalType": "bool",
          "name": "approved",
          "type": "bool"
        }
      ],
      "name": "setApprovalForAll",
      "outputs": [],
      "stateMutability": "nonpayable",
      "type": "function"
    },
    {
      "inputs": [
        {
          "internalType": "string",
          "name": "_newURI",
          "type": "string"
        }
      ],
      "name": "setBaseURI",
      "outputs": [],
      "stateMutability": "nonpayable",
      "type": "function"
    },
    {
      "inputs": [
        {
          "internalType": "bool",
          "name": "_start",
          "type": "bool"
        }
      ],
      "name": "setPresaleStart",
      "outputs": [],
      "stateMutability": "nonpayable",
      "type": "function"
    },
    {
      "inputs": [
        {
          "internalType": "bool",
          "name": "_start",
          "type": "bool"
        }
      ],
      "name": "setPublicStart",
      "outputs": [],
      "stateMutability": "nonpayable",
      "type": "function"
    },
    {
      "inputs": [
        {
          "internalType": "bool",
          "name": "_start",
          "type": "bool"
        }
      ],
      "name": "setStart",
      "outputs": [],
      "stateMutability": "nonpayable",
      "type": "function"
    },
    {
      "inputs": [],
      "name": "stakeAddress",
      "outputs": [
        {
          "internalType": "address",
          "name": "",
          "type": "address"
        }
      ],
      "stateMutability": "view",
      "type": "function"
    },
    {
      "inputs": [
        {
          "internalType": "bytes4",
          "name": "interfaceId",
          "type": "bytes4"
        }
      ],
      "name": "supportsInterface",
      "outputs": [
        {
          "internalType": "bool",
          "name": "",
          "type": "bool"
        }
      ],
      "stateMutability": "view",
      "type": "function"
    },
    {
      "inputs": [],
      "name": "symbol",
      "outputs": [
        {
          "internalType": "string",
          "name": "",
          "type": "string"
        }
      ],
      "stateMutability": "view",
      "type": "function"
    },
    {
      "inputs": [
        {
          "internalType": "uint256",
          "name": "index",
          "type": "uint256"
        }
      ],
      "name": "tokenByIndex",
      "outputs": [
        {
          "internalType": "uint256",
          "name": "",
          "type": "uint256"
        }
      ],
      "stateMutability": "view",
      "type": "function"
    },
    {
      "inputs": [
        {
          "internalType": "address",
          "name": "owner",
          "type": "address"
        },
        {
          "internalType": "uint256",
          "name": "index",
          "type": "uint256"
        }
      ],
      "name": "tokenOfOwnerByIndex",
      "outputs": [
        {
          "internalType": "uint256",
          "name": "",
          "type": "uint256"
        }
      ],
      "stateMutability": "view",
      "type": "function"
    },
    {
      "inputs": [
        {
          "internalType": "uint256",
          "name": "tokenId",
          "type": "uint256"
        }
      ],
      "name": "tokenURI",
      "outputs": [
        {
          "internalType": "string",
          "name": "",
          "type": "string"
        }
      ],
      "stateMutability": "view",
      "type": "function"
    },
    {
      "inputs": [
        {
          "internalType": "address",
          "name": "owner",
          "type": "address"
        }
      ],
      "name": "tokensOfOwner",
      "outputs": [
        {
          "internalType": "uint256[]",
          "name": "",
          "type": "uint256[]"
        }
      ],
      "stateMutability": "view",
      "type": "function"
    },
    {
      "inputs": [],
      "name": "total",
      "outputs": [
        {
          "internalType": "uint256",
          "name": "",
          "type": "uint256"
        }
      ],
      "stateMutability": "view",
      "type": "function"
    },
    {
      "inputs": [],
      "name": "totalCrop",
      "outputs": [
        {
          "internalType": "uint256",
          "name": "",
          "type": "uint256"
        }
      ],
      "stateMutability": "view",
      "type": "function"
    },
    {
      "inputs": [],
      "name": "totalEth",
      "outputs": [
        {
          "internalType": "uint256",
          "name": "",
          "type": "uint256"
        }
      ],
      "stateMutability": "view",
      "type": "function"
    },
    {
      "inputs": [],
      "name": "totalMax",
      "outputs": [
        {
          "internalType": "uint256",
          "name": "",
          "type": "uint256"
        }
      ],
      "stateMutability": "view",
      "type": "function"
    },
    {
      "inputs": [],
      "name": "totalSupply",
      "outputs": [
        {
          "internalType": "uint256",
          "name": "",
          "type": "uint256"
        }
      ],
      "stateMutability": "view",
      "type": "function"
    },
    {
      "inputs": [
        {
          "internalType": "address",
          "name": "from",
          "type": "address"
        },
        {
          "internalType": "address",
          "name": "to",
          "type": "address"
        },
        {
          "internalType": "uint256",
          "name": "tokenId",
          "type": "uint256"
        }
      ],
      "name": "transferFrom",
      "outputs": [],
      "stateMutability": "nonpayable",
      "type": "function"
    },
    {
      "inputs": [
        {
          "internalType": "address",
          "name": "newOwner",
          "type": "address"
        }
      ],
      "name": "transferOwnership",
      "outputs": [],
      "stateMutability": "nonpayable",
      "type": "function"
    },
    {
      "inputs": [],
      "name": "withdrawCrop",
      "outputs": [],
      "stateMutability": "nonpayable",
      "type": "function"
    }
  ],
  "bytecode": "0x60806040526032600d556101f4600e55610115600f5560036010556007601155610309601255668e1bc9bf0400006013556815af1d78b58c4000006014553480156200004a57600080fd5b5060405162006482380380620064828339818101604052810190620000709190620003f6565b858581600090805190602001906200008a929190620002bd565b508060019080519060200190620000a3929190620002bd565b505050620000c6620000ba620001ef60201b60201c565b620001f760201b60201c565b8360159080519060200190620000de929190620002bd565b5082601660036101000a81548173ffffffffffffffffffffffffffffffffffffffff021916908373ffffffffffffffffffffffffffffffffffffffff16021790555081601760006101000a81548173ffffffffffffffffffffffffffffffffffffffff021916908373ffffffffffffffffffffffffffffffffffffffff16021790555080601960006101000a81548173ffffffffffffffffffffffffffffffffffffffff021916908373ffffffffffffffffffffffffffffffffffffffff16021790555030601860006101000a81548173ffffffffffffffffffffffffffffffffffffffff021916908373ffffffffffffffffffffffffffffffffffffffff16021790555050505050505062000695565b600033905090565b6000600a60009054906101000a900473ffffffffffffffffffffffffffffffffffffffff16905081600a60006101000a81548173ffffffffffffffffffffffffffffffffffffffff021916908373ffffffffffffffffffffffffffffffffffffffff1602179055508173ffffffffffffffffffffffffffffffffffffffff168173ffffffffffffffffffffffffffffffffffffffff167f8be0079c531659141344cd1fd0a4f28419497f9722a3daafe3b4186f6b6457e060405160405180910390a35050565b828054620002cb90620005a0565b90600052602060002090601f016020900481019282620002ef57600085556200033b565b82601f106200030a57805160ff19168380011785556200033b565b828001600101855582156200033b579182015b828111156200033a5782518255916020019190600101906200031d565b5b5090506200034a91906200034e565b5090565b5b80821115620003695760008160009055506001016200034f565b5090565b6000620003846200037e8462000500565b620004d7565b9050828152602081018484840111156200039d57600080fd5b620003aa8482856200056a565b509392505050565b600081519050620003c3816200067b565b92915050565b600082601f830112620003db57600080fd5b8151620003ed8482602086016200036d565b91505092915050565b60008060008060008060c087890312156200041057600080fd5b600087015167ffffffffffffffff8111156200042b57600080fd5b6200043989828a01620003c9565b965050602087015167ffffffffffffffff8111156200045757600080fd5b6200046589828a01620003c9565b955050604087015167ffffffffffffffff8111156200048357600080fd5b6200049189828a01620003c9565b9450506060620004a489828a01620003b2565b9350506080620004b789828a01620003b2565b92505060a0620004ca89828a01620003b2565b9150509295509295509295565b6000620004e3620004f6565b9050620004f18282620005d6565b919050565b6000604051905090565b600067ffffffffffffffff8211156200051e576200051d6200063b565b5b62000529826200066a565b9050602081019050919050565b600062000543826200054a565b9050919050565b600073ffffffffffffffffffffffffffffffffffffffff82169050919050565b60005b838110156200058a5780820151818401526020810190506200056d565b838111156200059a576000848401525b50505050565b60006002820490506001821680620005b957607f821691505b60208210811415620005d057620005cf6200060c565b5b50919050565b620005e1826200066a565b810181811067ffffffffffffffff821117156200060357620006026200063b565b5b80604052505050565b7f4e487b7100000000000000000000000000000000000000000000000000000000600052602260045260246000fd5b7f4e487b7100000000000000000000000000000000000000000000000000000000600052604160045260246000fd5b6000601f19601f8301169050919050565b620006868162000536565b81146200069257600080fd5b50565b615ddd80620006a56000396000f3fe6080604052600436106102725760003560e01c80637f6497831161014f578063a22cb465116100c1578063d4a770ad1161007a578063d4a770ad14610943578063dc1d85f61461096e578063e985e9c514610999578063eb8835ab146109d6578063f2fde38b14610a13578063f6b4dfb414610a3c57610272565b8063a22cb46514610833578063a29eed921461085c578063a37f85a114610887578063b88d4fde146108b2578063c50a2ac2146108db578063c87b56dd1461090657610272565b80638da5cb5b116101135780638da5cb5b14610744578063933830851461076f57806395d89b411461079857806398ae99a8146107c3578063a035b1fe146107ec578063a0712d681461081757610272565b80637f6497831461065d57806380906197146106865780638462151c146106b157806385107367146106ee5780638cb5367f1461071957610272565b806342842e0e116101e857806364feb7ca116101ac57806364feb7ca146105755780636555dc401461059e57806368e24327146105b55780636c0360eb146105de57806370a0823114610609578063715018a61461064657610272565b806342842e0e146104805780634f6ccce7146104a957806355f804b3146104e657806358dd175d1461050f5780636352211e1461053857610272565b806318160ddd1161023a57806318160ddd1461037057806323b872dd1461039b5780632ddbd13a146103c45780632f745c59146103ef578063375a069a1461042c5780633c3c9c231461045557610272565b806301ffc9a71461027757806306fdde03146102b4578063081812fc146102df578063095ea7b31461031c57806310cd0c9d14610345575b600080fd5b34801561028357600080fd5b5061029e600480360381019061029991906143c4565b610a67565b6040516102ab9190614c4f565b60405180910390f35b3480156102c057600080fd5b506102c9610ae1565b6040516102d69190614ca0565b60405180910390f35b3480156102eb57600080fd5b5061030660048036038101906103019190614457565b610b73565b6040516103139190614b66565b60405180910390f35b34801561032857600080fd5b50610343600480360381019061033e91906142b0565b610bf8565b005b34801561035157600080fd5b5061035a610d10565b60405161036791906150d2565b60405180910390f35b34801561037c57600080fd5b50610385610d16565b60405161039291906150d2565b60405180910390f35b3480156103a757600080fd5b506103c260048036038101906103bd91906141aa565b610d23565b005b3480156103d057600080fd5b506103d9610d83565b6040516103e691906150d2565b60405180910390f35b3480156103fb57600080fd5b50610416600480360381019061041191906142b0565b610d89565b60405161042391906150d2565b60405180910390f35b34801561043857600080fd5b50610453600480360381019061044e9190614457565b610e2e565b005b34801561046157600080fd5b5061046a610fb6565b60405161047791906150d2565b60405180910390f35b34801561048c57600080fd5b506104a760048036038101906104a291906141aa565b610fbc565b005b3480156104b557600080fd5b506104d060048036038101906104cb9190614457565b610fdc565b6040516104dd91906150d2565b60405180910390f35b3480156104f257600080fd5b5061050d60048036038101906105089190614416565b611073565b005b34801561051b57600080fd5b50610536600480360381019061053191906144a9565b611109565b005b34801561054457600080fd5b5061055f600480360381019061055a9190614457565b611527565b60405161056c9190614b66565b60405180910390f35b34801561058157600080fd5b5061059c60048036038101906105979190614372565b6115d9565b005b3480156105aa57600080fd5b506105b3611672565b005b3480156105c157600080fd5b506105dc60048036038101906105d79190614372565b611857565b005b3480156105ea57600080fd5b506105f36118f0565b6040516106009190614ca0565b60405180910390f35b34801561061557600080fd5b50610630600480360381019061062b9190614145565b61197e565b60405161063d91906150d2565b60405180910390f35b34801561065257600080fd5b5061065b611a36565b005b34801561066957600080fd5b50610684600480360381019061067f91906142ec565b611abe565b005b34801561069257600080fd5b5061069b611c05565b6040516106a89190614c85565b60405180910390f35b3480156106bd57600080fd5b506106d860048036038101906106d39190614145565b611c2b565b6040516106e59190614c2d565b60405180910390f35b3480156106fa57600080fd5b50610703611d25565b6040516107109190614b66565b60405180910390f35b34801561072557600080fd5b5061072e611d4b565b60405161073b91906150d2565b60405180910390f35b34801561075057600080fd5b50610759611d51565b6040516107669190614b66565b60405180910390f35b34801561077b57600080fd5b5061079660048036038101906107919190614372565b611d7b565b005b3480156107a457600080fd5b506107ad611e14565b6040516107ba9190614ca0565b60405180910390f35b3480156107cf57600080fd5b506107ea60048036038101906107e591906144a9565b611ea6565b005b3480156107f857600080fd5b5061080161250e565b60405161080e91906150d2565b60405180910390f35b610831600480360381019061082c9190614457565b612514565b005b34801561083f57600080fd5b5061085a60048036038101906108559190614274565b61284c565b005b34801561086857600080fd5b50610871612862565b60405161087e9190614c6a565b60405180910390f35b34801561089357600080fd5b5061089c612888565b6040516108a991906150d2565b60405180910390f35b3480156108be57600080fd5b506108d960048036038101906108d491906141f9565b61288e565b005b3480156108e757600080fd5b506108f06128f0565b6040516108fd91906150d2565b60405180910390f35b34801561091257600080fd5b5061092d60048036038101906109289190614457565b6128f6565b60405161093a9190614ca0565b60405180910390f35b34801561094f57600080fd5b506109586129c4565b60405161096591906150d2565b60405180910390f35b34801561097a57600080fd5b506109836129ca565b60405161099091906150d2565b60405180910390f35b3480156109a557600080fd5b506109c060048036038101906109bb919061416e565b6129d0565b6040516109cd9190614c4f565b60405180910390f35b3480156109e257600080fd5b506109fd60048036038101906109f89190614145565b612a64565b604051610a0a9190614c4f565b60405180910390f35b348015610a1f57600080fd5b50610a3a6004803603810190610a359190614145565b612a84565b005b348015610a4857600080fd5b50610a51612b7c565b604051610a5e9190614b66565b60405180910390f35b60007f780e9d63000000000000000000000000000000000000000000000000000000007bffffffffffffffffffffffffffffffffffffffffffffffffffffffff1916827bffffffffffffffffffffffffffffffffffffffffffffffffffffffff19161480610ada5750610ad982612ba2565b5b9050919050565b606060008054610af09061546d565b80601f0160208091040260200160405190810160405280929190818152602001828054610b1c9061546d565b8015610b695780601f10610b3e57610100808354040283529160200191610b69565b820191906000526020600020905b815481529060010190602001808311610b4c57829003601f168201915b5050505050905090565b6000610b7e82612c84565b610bbd576040517f08c379a0000000000000000000000000000000000000000000000000000000008152600401610bb490614f72565b60405180910390fd5b6004600083815260200190815260200160002060009054906101000a900473ffffffffffffffffffffffffffffffffffffffff169050919050565b6000610c0382611527565b90508073ffffffffffffffffffffffffffffffffffffffff168373ffffffffffffffffffffffffffffffffffffffff161415610c74576040517f08c379a0000000000000000000000000000000000000000000000000000000008152600401610c6b90614ff2565b60405180910390fd5b8073ffffffffffffffffffffffffffffffffffffffff16610c93612cf0565b73ffffffffffffffffffffffffffffffffffffffff161480610cc25750610cc181610cbc612cf0565b6129d0565b5b610d01576040517f08c379a0000000000000000000000000000000000000000000000000000000008152600401610cf890614e72565b60405180910390fd5b610d0b8383612cf8565b505050565b600e5481565b6000600880549050905090565b610d34610d2e612cf0565b82612db1565b610d73576040517f08c379a0000000000000000000000000000000000000000000000000000000008152600401610d6a90615032565b60405180910390fd5b610d7e838383612e8f565b505050565b600c5481565b6000610d948361197e565b8210610dd5576040517f08c379a0000000000000000000000000000000000000000000000000000000008152600401610dcc90614d32565b60405180910390fd5b600660008473ffffffffffffffffffffffffffffffffffffffff1673ffffffffffffffffffffffffffffffffffffffff168152602001908152602001600020600083815260200190815260200160002054905092915050565b610e36612cf0565b73ffffffffffffffffffffffffffffffffffffffff16610e54611d51565b73ffffffffffffffffffffffffffffffffffffffff1614610eaa576040517f08c379a0000000000000000000000000000000000000000000000000000000008152600401610ea190614f92565b60405180910390fd5b600e5481600c54610ebb919061525a565b1115610efc576040517f08c379a0000000000000000000000000000000000000000000000000000000008152600401610ef390614fd2565b60405180910390fd5b610f04612cf0565b73ffffffffffffffffffffffffffffffffffffffff167f4c209b5fc8ad50758f13e2e1088ba56a560dff690a1c6fef26394f4c03821c4f6001600c54610f4a919061525a565b83604051610f599291906150ed565b60405180910390a260005b81811015610fb257610f9f610f77612cf0565b600c6000815480929190610f8a906154d0565b919050556001610f9a919061525a565b6130eb565b8080610faa906154d0565b915050610f64565b5050565b600f5481565b610fd78383836040518060200160405280600081525061288e565b505050565b6000610fe6610d16565b8210611027576040517f08c379a000000000000000000000000000000000000000000000000000000000815260040161101e90615072565b60405180910390fd5b60088281548110611061577f4e487b7100000000000000000000000000000000000000000000000000000000600052603260045260246000fd5b90600052602060002001549050919050565b61107b612cf0565b73ffffffffffffffffffffffffffffffffffffffff16611099611d51565b73ffffffffffffffffffffffffffffffffffffffff16146110ef576040517f08c379a00000000000000000000000000000000000000000000000000000000081526004016110e690614f92565b60405180910390fd5b8060159080519060200190611105929190613e5f565b5050565b601660019054906101000a900460ff16611158576040517f08c379a000000000000000000000000000000000000000000000000000000000815260040161114f90614e12565b60405180910390fd5b600e5482600c54611169919061525a565b11156111aa576040517f08c379a00000000000000000000000000000000000000000000000000000000081526004016111a190614f12565b60405180910390fd5b601454826111b891906152e1565b8110156111fa576040517f08c379a00000000000000000000000000000000000000000000000000000000081526004016111f1906150b2565b60405180910390fd5b600b60003373ffffffffffffffffffffffffffffffffffffffff1673ffffffffffffffffffffffffffffffffffffffff16815260200190815260200160002060009054906101000a900460ff16611286576040517f08c379a000000000000000000000000000000000000000000000000000000000815260040161127d90615052565b60405180910390fd5b6010548211156112cb576040517f08c379a00000000000000000000000000000000000000000000000000000000081526004016112c290614d12565b60405180910390fd5b601054601860009054906101000a900473ffffffffffffffffffffffffffffffffffffffff1673ffffffffffffffffffffffffffffffffffffffff166370a08231336040518263ffffffff1660e01b81526004016113299190614b66565b60206040518083038186803b15801561134157600080fd5b505afa158015611355573d6000803e3d6000fd5b505050506040513d601f19601f820116820180604052508101906113799190614480565b11156113ba576040517f08c379a00000000000000000000000000000000000000000000000000000000081526004016113b190614ef2565b60405180910390fd5b601760009054906101000a900473ffffffffffffffffffffffffffffffffffffffff1673ffffffffffffffffffffffffffffffffffffffff166323b872dd3330846040518463ffffffff1660e01b815260040161141993929190614b81565b602060405180830381600087803b15801561143357600080fd5b505af1158015611447573d6000803e3d6000fd5b505050506040513d601f19601f8201168201806040525081019061146b919061439b565b50611474612cf0565b73ffffffffffffffffffffffffffffffffffffffff167f4c209b5fc8ad50758f13e2e1088ba56a560dff690a1c6fef26394f4c03821c4f6001600c546114ba919061525a565b846040516114c99291906150ed565b60405180910390a260005b828110156115225761150f6114e7612cf0565b600c60008154809291906114fa906154d0565b91905055600161150a919061525a565b6130eb565b808061151a906154d0565b9150506114d4565b505050565b6000806002600084815260200190815260200160002060009054906101000a900473ffffffffffffffffffffffffffffffffffffffff169050600073ffffffffffffffffffffffffffffffffffffffff168173ffffffffffffffffffffffffffffffffffffffff1614156115d0576040517f08c379a00000000000000000000000000000000000000000000000000000000081526004016115c790614eb2565b60405180910390fd5b80915050919050565b6115e1612cf0565b73ffffffffffffffffffffffffffffffffffffffff166115ff611d51565b73ffffffffffffffffffffffffffffffffffffffff1614611655576040517f08c379a000000000000000000000000000000000000000000000000000000000815260040161164c90614f92565b60405180910390fd5b80601660026101000a81548160ff02191690831515021790555050565b61167a612cf0565b73ffffffffffffffffffffffffffffffffffffffff16611698611d51565b73ffffffffffffffffffffffffffffffffffffffff16146116ee576040517f08c379a00000000000000000000000000000000000000000000000000000000081526004016116e590614f92565b60405180910390fd5b6000601760009054906101000a900473ffffffffffffffffffffffffffffffffffffffff1673ffffffffffffffffffffffffffffffffffffffff166370a08231306040518263ffffffff1660e01b815260040161174b9190614b66565b60206040518083038186803b15801561176357600080fd5b505afa158015611777573d6000803e3d6000fd5b505050506040513d601f19601f8201168201806040525081019061179b9190614480565b9050601760009054906101000a900473ffffffffffffffffffffffffffffffffffffffff1673ffffffffffffffffffffffffffffffffffffffff1663a9059cbb6117e3612cf0565b836040518363ffffffff1660e01b8152600401611801929190614c04565b602060405180830381600087803b15801561181b57600080fd5b505af115801561182f573d6000803e3d6000fd5b505050506040513d601f19601f82011682018060405250810190611853919061439b565b5050565b61185f612cf0565b73ffffffffffffffffffffffffffffffffffffffff1661187d611d51565b73ffffffffffffffffffffffffffffffffffffffff16146118d3576040517f08c379a00000000000000000000000000000000000000000000000000000000081526004016118ca90614f92565b60405180910390fd5b80601660006101000a81548160ff02191690831515021790555050565b601580546118fd9061546d565b80601f01602080910402602001604051908101604052809291908181526020018280546119299061546d565b80156119765780601f1061194b57610100808354040283529160200191611976565b820191906000526020600020905b81548152906001019060200180831161195957829003601f168201915b505050505081565b60008073ffffffffffffffffffffffffffffffffffffffff168273ffffffffffffffffffffffffffffffffffffffff1614156119ef576040517f08c379a00000000000000000000000000000000000000000000000000000000081526004016119e690614e92565b60405180910390fd5b600360008373ffffffffffffffffffffffffffffffffffffffff1673ffffffffffffffffffffffffffffffffffffffff168152602001908152602001600020549050919050565b611a3e612cf0565b73ffffffffffffffffffffffffffffffffffffffff16611a5c611d51565b73ffffffffffffffffffffffffffffffffffffffff1614611ab2576040517f08c379a0000000000000000000000000000000000000000000000000000000008152600401611aa990614f92565b60405180910390fd5b611abc60006132b9565b565b611ac6612cf0565b73ffffffffffffffffffffffffffffffffffffffff16611ae4611d51565b73ffffffffffffffffffffffffffffffffffffffff1614611b3a576040517f08c379a0000000000000000000000000000000000000000000000000000000008152600401611b3190614f92565b60405180910390fd5b60005b82829050811015611c00576001600b6000858585818110611b87577f4e487b7100000000000000000000000000000000000000000000000000000000600052603260045260246000fd5b9050602002016020810190611b9c9190614145565b73ffffffffffffffffffffffffffffffffffffffff1673ffffffffffffffffffffffffffffffffffffffff16815260200190815260200160002060006101000a81548160ff0219169083151502179055508080611bf8906154d0565b915050611b3d565b505050565b601660039054906101000a900473ffffffffffffffffffffffffffffffffffffffff1681565b60606000611c388361197e565b905060008167ffffffffffffffff811115611c7c577f4e487b7100000000000000000000000000000000000000000000000000000000600052604160045260246000fd5b604051908082528060200260200182016040528015611caa5781602001602082028036833780820191505090505b50905060005b82811015611d1a57611cc28582610d89565b828281518110611cfb577f4e487b7100000000000000000000000000000000000000000000000000000000600052603260045260246000fd5b6020026020010181815250508080611d12906154d0565b915050611cb0565b508092505050919050565b601960009054906101000a900473ffffffffffffffffffffffffffffffffffffffff1681565b60145481565b6000600a60009054906101000a900473ffffffffffffffffffffffffffffffffffffffff16905090565b611d83612cf0565b73ffffffffffffffffffffffffffffffffffffffff16611da1611d51565b73ffffffffffffffffffffffffffffffffffffffff1614611df7576040517f08c379a0000000000000000000000000000000000000000000000000000000008152600401611dee90614f92565b60405180910390fd5b80601660016101000a81548160ff02191690831515021790555050565b606060018054611e239061546d565b80601f0160208091040260200160405190810160405280929190818152602001828054611e4f9061546d565b8015611e9c5780601f10611e7157610100808354040283529160200191611e9c565b820191906000526020600020905b815481529060010190602001808311611e7f57829003601f168201915b5050505050905090565b601660009054906101000a900460ff16611ef5576040517f08c379a0000000000000000000000000000000000000000000000000000000008152600401611eec90614e12565b60405180910390fd5b600e5482600c54611f06919061525a565b1115611f47576040517f08c379a0000000000000000000000000000000000000000000000000000000008152600401611f3e90614f12565b60405180910390fd5b60145482611f5591906152e1565b811015611f97576040517f08c379a0000000000000000000000000000000000000000000000000000000008152600401611f8e906150b2565b60405180910390fd5b6000601960009054906101000a900473ffffffffffffffffffffffffffffffffffffffff1673ffffffffffffffffffffffffffffffffffffffff1663e3a9db1a336040518263ffffffff1660e01b8152600401611ff49190614b66565b60006040518083038186803b15801561200c57600080fd5b505afa158015612020573d6000803e3d6000fd5b505050506040513d6000823e3d601f19601f820116820180604052508101906120499190614331565b51905061208b6040518060400160405280601781526020017f6661726d73207374616b65642062792073656e6465723a0000000000000000008152508261337f565b6121746040518060400160405280601781526020017f6661726d7320696e2073656e6465722077616c6c65743a000000000000000000815250601660039054906101000a900473ffffffffffffffffffffffffffffffffffffffff1673ffffffffffffffffffffffffffffffffffffffff166370a08231336040518263ffffffff1660e01b815260040161211f9190614b66565b60206040518083038186803b15801561213757600080fd5b505afa15801561214b573d6000803e3d6000fd5b505050506040513d601f19601f8201168201806040525081019061216f9190614480565b61337f565b6000601660039054906101000a900473ffffffffffffffffffffffffffffffffffffffff1673ffffffffffffffffffffffffffffffffffffffff166370a08231336040518263ffffffff1660e01b81526004016121d19190614b66565b60206040518083038186803b1580156121e957600080fd5b505afa1580156121fd573d6000803e3d6000fd5b505050506040513d601f19601f820116820180604052508101906122219190614480565b118061222d5750600081115b61226c576040517f08c379a000000000000000000000000000000000000000000000000000000000815260040161226390614db2565b60405180910390fd5b6011548311156122b1576040517f08c379a00000000000000000000000000000000000000000000000000000000081526004016122a890614d12565b60405180910390fd5b601154601860009054906101000a900473ffffffffffffffffffffffffffffffffffffffff1673ffffffffffffffffffffffffffffffffffffffff166370a08231336040518263ffffffff1660e01b815260040161230f9190614b66565b60206040518083038186803b15801561232757600080fd5b505afa15801561233b573d6000803e3d6000fd5b505050506040513d601f19601f8201168201806040525081019061235f9190614480565b11156123a0576040517f08c379a000000000000000000000000000000000000000000000000000000000815260040161239790614ef2565b60405180910390fd5b601760009054906101000a900473ffffffffffffffffffffffffffffffffffffffff1673ffffffffffffffffffffffffffffffffffffffff166323b872dd3330856040518463ffffffff1660e01b81526004016123ff93929190614b81565b602060405180830381600087803b15801561241957600080fd5b505af115801561242d573d6000803e3d6000fd5b505050506040513d601f19601f82011682018060405250810190612451919061439b565b5061245a612cf0565b73ffffffffffffffffffffffffffffffffffffffff167f4c209b5fc8ad50758f13e2e1088ba56a560dff690a1c6fef26394f4c03821c4f6001600c546124a0919061525a565b856040516124af9291906150ed565b60405180910390a260005b83811015612508576124f56124cd612cf0565b600c60008154809291906124e0906154d0565b9190505560016124f0919061525a565b6130eb565b8080612500906154d0565b9150506124ba565b50505050565b60135481565b601660029054906101000a900460ff16612563576040517f08c379a000000000000000000000000000000000000000000000000000000000815260040161255a90615092565b60405180910390fd5b60008111801561257557506011548111155b6125b4576040517f08c379a00000000000000000000000000000000000000000000000000000000081526004016125ab90614cf2565b60405180910390fd5b601154601860009054906101000a900473ffffffffffffffffffffffffffffffffffffffff1673ffffffffffffffffffffffffffffffffffffffff166370a08231336040518263ffffffff1660e01b81526004016126129190614b66565b60206040518083038186803b15801561262a57600080fd5b505afa15801561263e573d6000803e3d6000fd5b505050506040513d601f19601f820116820180604052508101906126629190614480565b11156126a3576040517f08c379a000000000000000000000000000000000000000000000000000000000815260040161269a90614ed2565b60405180910390fd5b60125481600c546126b4919061525a565b11156126f5576040517f08c379a00000000000000000000000000000000000000000000000000000000081526004016126ec90614e32565b60405180910390fd5b6013548161270391906152e1565b3414612744576040517f08c379a000000000000000000000000000000000000000000000000000000000815260040161273b90615012565b60405180910390fd5b61274c611d51565b73ffffffffffffffffffffffffffffffffffffffff166108fc349081150290604051600060405180830381858888f19350505050158015612791573d6000803e3d6000fd5b5061279a612cf0565b73ffffffffffffffffffffffffffffffffffffffff167f4c209b5fc8ad50758f13e2e1088ba56a560dff690a1c6fef26394f4c03821c4f6001600c546127e0919061525a565b836040516127ef9291906150ed565b60405180910390a260005b818110156128485761283561280d612cf0565b600c6000815480929190612820906154d0565b919050556001612830919061525a565b6130eb565b8080612840906154d0565b9150506127fa565b5050565b61285e612857612cf0565b838361341b565b5050565b601760009054906101000a900473ffffffffffffffffffffffffffffffffffffffff1681565b60125481565b61289f612899612cf0565b83612db1565b6128de576040517f08c379a00000000000000000000000000000000000000000000000000000000081526004016128d590615032565b60405180910390fd5b6128ea84848484613588565b50505050565b60105481565b606061290182612c84565b612940576040517f08c379a000000000000000000000000000000000000000000000000000000000815260040161293790614f32565b60405180910390fd5b60006015805461294f9061546d565b905011612991576040518060400160405280600581526020017f2e6a736f6e0000000000000000000000000000000000000000000000000000008152506129bd565b601561299c836135e4565b6040516020016129ad929190614b37565b6040516020818303038152906040525b9050919050565b60115481565b600d5481565b6000600560008473ffffffffffffffffffffffffffffffffffffffff1673ffffffffffffffffffffffffffffffffffffffff16815260200190815260200160002060008373ffffffffffffffffffffffffffffffffffffffff1673ffffffffffffffffffffffffffffffffffffffff16815260200190815260200160002060009054906101000a900460ff16905092915050565b600b6020528060005260406000206000915054906101000a900460ff1681565b612a8c612cf0565b73ffffffffffffffffffffffffffffffffffffffff16612aaa611d51565b73ffffffffffffffffffffffffffffffffffffffff1614612b00576040517f08c379a0000000000000000000000000000000000000000000000000000000008152600401612af790614f92565b60405180910390fd5b600073ffffffffffffffffffffffffffffffffffffffff168173ffffffffffffffffffffffffffffffffffffffff161415612b70576040517f08c379a0000000000000000000000000000000000000000000000000000000008152600401612b6790614d72565b60405180910390fd5b612b79816132b9565b50565b601860009054906101000a900473ffffffffffffffffffffffffffffffffffffffff1681565b60007f80ac58cd000000000000000000000000000000000000000000000000000000007bffffffffffffffffffffffffffffffffffffffffffffffffffffffff1916827bffffffffffffffffffffffffffffffffffffffffffffffffffffffff19161480612c6d57507f5b5e139f000000000000000000000000000000000000000000000000000000007bffffffffffffffffffffffffffffffffffffffffffffffffffffffff1916827bffffffffffffffffffffffffffffffffffffffffffffffffffffffff1916145b80612c7d5750612c7c82613791565b5b9050919050565b60008073ffffffffffffffffffffffffffffffffffffffff166002600084815260200190815260200160002060009054906101000a900473ffffffffffffffffffffffffffffffffffffffff1673ffffffffffffffffffffffffffffffffffffffff1614159050919050565b600033905090565b816004600083815260200190815260200160002060006101000a81548173ffffffffffffffffffffffffffffffffffffffff021916908373ffffffffffffffffffffffffffffffffffffffff160217905550808273ffffffffffffffffffffffffffffffffffffffff16612d6b83611527565b73ffffffffffffffffffffffffffffffffffffffff167f8c5be1e5ebec7d5bd14f71427d1e84f3dd0314c0f7b2291e5b200ac8c7c3b92560405160405180910390a45050565b6000612dbc82612c84565b612dfb576040517f08c379a0000000000000000000000000000000000000000000000000000000008152600401612df290614e52565b60405180910390fd5b6000612e0683611527565b90508073ffffffffffffffffffffffffffffffffffffffff168473ffffffffffffffffffffffffffffffffffffffff161480612e7557508373ffffffffffffffffffffffffffffffffffffffff16612e5d84610b73565b73ffffffffffffffffffffffffffffffffffffffff16145b80612e865750612e8581856129d0565b5b91505092915050565b8273ffffffffffffffffffffffffffffffffffffffff16612eaf82611527565b73ffffffffffffffffffffffffffffffffffffffff1614612f05576040517f08c379a0000000000000000000000000000000000000000000000000000000008152600401612efc90614fb2565b60405180910390fd5b600073ffffffffffffffffffffffffffffffffffffffff168273ffffffffffffffffffffffffffffffffffffffff161415612f75576040517f08c379a0000000000000000000000000000000000000000000000000000000008152600401612f6c90614dd2565b60405180910390fd5b612f808383836137fb565b612f8b600082612cf8565b6001600360008573ffffffffffffffffffffffffffffffffffffffff1673ffffffffffffffffffffffffffffffffffffffff1681526020019081526020016000206000828254612fdb919061533b565b925050819055506001600360008473ffffffffffffffffffffffffffffffffffffffff1673ffffffffffffffffffffffffffffffffffffffff1681526020019081526020016000206000828254613032919061525a565b92505081905550816002600083815260200190815260200160002060006101000a81548173ffffffffffffffffffffffffffffffffffffffff021916908373ffffffffffffffffffffffffffffffffffffffff160217905550808273ffffffffffffffffffffffffffffffffffffffff168473ffffffffffffffffffffffffffffffffffffffff167fddf252ad1be2c89b69c2b068fc378daa952ba7f163c4a11628f55a4df523b3ef60405160405180910390a4505050565b600073ffffffffffffffffffffffffffffffffffffffff168273ffffffffffffffffffffffffffffffffffffffff16141561315b576040517f08c379a000000000000000000000000000000000000000000000000000000000815260040161315290614f52565b60405180910390fd5b61316481612c84565b156131a4576040517f08c379a000000000000000000000000000000000000000000000000000000000815260040161319b90614d92565b60405180910390fd5b6131b0600083836137fb565b6001600360008473ffffffffffffffffffffffffffffffffffffffff1673ffffffffffffffffffffffffffffffffffffffff1681526020019081526020016000206000828254613200919061525a565b92505081905550816002600083815260200190815260200160002060006101000a81548173ffffffffffffffffffffffffffffffffffffffff021916908373ffffffffffffffffffffffffffffffffffffffff160217905550808273ffffffffffffffffffffffffffffffffffffffff16600073ffffffffffffffffffffffffffffffffffffffff167fddf252ad1be2c89b69c2b068fc378daa952ba7f163c4a11628f55a4df523b3ef60405160405180910390a45050565b6000600a60009054906101000a900473ffffffffffffffffffffffffffffffffffffffff16905081600a60006101000a81548173ffffffffffffffffffffffffffffffffffffffff021916908373ffffffffffffffffffffffffffffffffffffffff1602179055508173ffffffffffffffffffffffffffffffffffffffff168173ffffffffffffffffffffffffffffffffffffffff167f8be0079c531659141344cd1fd0a4f28419497f9722a3daafe3b4186f6b6457e060405160405180910390a35050565b6134178282604051602401613395929190614cc2565b6040516020818303038152906040527f9710a9d0000000000000000000000000000000000000000000000000000000007bffffffffffffffffffffffffffffffffffffffffffffffffffffffff19166020820180517bffffffffffffffffffffffffffffffffffffffffffffffffffffffff838183161783525050505061390f565b5050565b8173ffffffffffffffffffffffffffffffffffffffff168373ffffffffffffffffffffffffffffffffffffffff16141561348a576040517f08c379a000000000000000000000000000000000000000000000000000000000815260040161348190614df2565b60405180910390fd5b80600560008573ffffffffffffffffffffffffffffffffffffffff1673ffffffffffffffffffffffffffffffffffffffff16815260200190815260200160002060008473ffffffffffffffffffffffffffffffffffffffff1673ffffffffffffffffffffffffffffffffffffffff16815260200190815260200160002060006101000a81548160ff0219169083151502179055508173ffffffffffffffffffffffffffffffffffffffff168373ffffffffffffffffffffffffffffffffffffffff167f17307eab39ab6107e8899845ad3d59bd9653f200f220920489ca2b5937696c318360405161357b9190614c4f565b60405180910390a3505050565b613593848484612e8f565b61359f84848484613938565b6135de576040517f08c379a00000000000000000000000000000000000000000000000000000000081526004016135d590614d52565b60405180910390fd5b50505050565b6060600082141561362c576040518060400160405280600181526020017f3000000000000000000000000000000000000000000000000000000000000000815250905061378c565b600082905060005b6000821461365e578080613647906154d0565b915050600a8261365791906152b0565b9150613634565b60008167ffffffffffffffff8111156136a0577f4e487b7100000000000000000000000000000000000000000000000000000000600052604160045260246000fd5b6040519080825280601f01601f1916602001820160405280156136d25781602001600182028036833780820191505090505b5090505b60008514613785576001826136eb919061533b565b9150600a856136fa9190615519565b6030613706919061525a565b60f81b818381518110613742577f4e487b7100000000000000000000000000000000000000000000000000000000600052603260045260246000fd5b60200101907effffffffffffffffffffffffffffffffffffffffffffffffffffffffffffff1916908160001a905350600a8561377e91906152b0565b94506136d6565b8093505050505b919050565b60007f01ffc9a7000000000000000000000000000000000000000000000000000000007bffffffffffffffffffffffffffffffffffffffffffffffffffffffff1916827bffffffffffffffffffffffffffffffffffffffffffffffffffffffff1916149050919050565b613806838383613acf565b600073ffffffffffffffffffffffffffffffffffffffff168373ffffffffffffffffffffffffffffffffffffffff1614156138495761384481613ad4565b613888565b8173ffffffffffffffffffffffffffffffffffffffff168373ffffffffffffffffffffffffffffffffffffffff1614613887576138868382613b1d565b5b5b600073ffffffffffffffffffffffffffffffffffffffff168273ffffffffffffffffffffffffffffffffffffffff1614156138cb576138c681613c8a565b61390a565b8273ffffffffffffffffffffffffffffffffffffffff168273ffffffffffffffffffffffffffffffffffffffff1614613909576139088282613dcd565b5b5b505050565b60008151905060006a636f6e736f6c652e6c6f679050602083016000808483855afa5050505050565b60006139598473ffffffffffffffffffffffffffffffffffffffff16613e4c565b15613ac2578373ffffffffffffffffffffffffffffffffffffffff1663150b7a02613982612cf0565b8786866040518563ffffffff1660e01b81526004016139a49493929190614bb8565b602060405180830381600087803b1580156139be57600080fd5b505af19250505080156139ef57506040513d601f19601f820116820180604052508101906139ec91906143ed565b60015b613a72573d8060008114613a1f576040519150601f19603f3d011682016040523d82523d6000602084013e613a24565b606091505b50600081511415613a6a576040517f08c379a0000000000000000000000000000000000000000000000000000000008152600401613a6190614d52565b60405180910390fd5b805181602001fd5b63150b7a0260e01b7bffffffffffffffffffffffffffffffffffffffffffffffffffffffff1916817bffffffffffffffffffffffffffffffffffffffffffffffffffffffff191614915050613ac7565b600190505b949350505050565b505050565b6008805490506009600083815260200190815260200160002081905550600881908060018154018082558091505060019003906000526020600020016000909190919091505550565b60006001613b2a8461197e565b613b34919061533b565b9050600060076000848152602001908152602001600020549050818114613c19576000600660008673ffffffffffffffffffffffffffffffffffffffff1673ffffffffffffffffffffffffffffffffffffffff168152602001908152602001600020600084815260200190815260200160002054905080600660008773ffffffffffffffffffffffffffffffffffffffff1673ffffffffffffffffffffffffffffffffffffffff168152602001908152602001600020600084815260200190815260200160002081905550816007600083815260200190815260200160002081905550505b6007600084815260200190815260200160002060009055600660008573ffffffffffffffffffffffffffffffffffffffff1673ffffffffffffffffffffffffffffffffffffffff16815260200190815260200160002060008381526020019081526020016000206000905550505050565b60006001600880549050613c9e919061533b565b9050600060096000848152602001908152602001600020549050600060088381548110613cf4577f4e487b7100000000000000000000000000000000000000000000000000000000600052603260045260246000fd5b906000526020600020015490508060088381548110613d3c577f4e487b7100000000000000000000000000000000000000000000000000000000600052603260045260246000fd5b906000526020600020018190555081600960008381526020019081526020016000208190555060096000858152602001908152602001600020600090556008805480613db1577f4e487b7100000000000000000000000000000000000000000000000000000000600052603160045260246000fd5b6001900381819060005260206000200160009055905550505050565b6000613dd88361197e565b905081600660008573ffffffffffffffffffffffffffffffffffffffff1673ffffffffffffffffffffffffffffffffffffffff168152602001908152602001600020600083815260200190815260200160002081905550806007600084815260200190815260200160002081905550505050565b600080823b905060008111915050919050565b828054613e6b9061546d565b90600052602060002090601f016020900481019282613e8d5760008555613ed4565b82601f10613ea657805160ff1916838001178555613ed4565b82800160010185558215613ed4579182015b82811115613ed3578251825591602001919060010190613eb8565b5b509050613ee19190613ee5565b5090565b5b80821115613efe576000816000905550600101613ee6565b5090565b6000613f15613f108461513b565b615116565b90508083825260208201905082856020860282011115613f3457600080fd5b60005b85811015613f645781613f4a8882614130565b845260208401935060208301925050600181019050613f37565b5050509392505050565b6000613f81613f7c84615167565b615116565b905082815260208101848484011115613f9957600080fd5b613fa484828561542b565b509392505050565b6000613fbf613fba84615198565b615116565b905082815260208101848484011115613fd757600080fd5b613fe284828561542b565b509392505050565b600081359050613ff981615d4b565b92915050565b60008083601f84011261401157600080fd5b8235905067ffffffffffffffff81111561402a57600080fd5b60208301915083602082028301111561404257600080fd5b9250929050565b600082601f83011261405a57600080fd5b815161406a848260208601613f02565b91505092915050565b60008135905061408281615d62565b92915050565b60008151905061409781615d62565b92915050565b6000813590506140ac81615d79565b92915050565b6000815190506140c181615d79565b92915050565b600082601f8301126140d857600080fd5b81356140e8848260208601613f6e565b91505092915050565b600082601f83011261410257600080fd5b8135614112848260208601613fac565b91505092915050565b60008135905061412a81615d90565b92915050565b60008151905061413f81615d90565b92915050565b60006020828403121561415757600080fd5b600061416584828501613fea565b91505092915050565b6000806040838503121561418157600080fd5b600061418f85828601613fea565b92505060206141a085828601613fea565b9150509250929050565b6000806000606084860312156141bf57600080fd5b60006141cd86828701613fea565b93505060206141de86828701613fea565b92505060406141ef8682870161411b565b9150509250925092565b6000806000806080858703121561420f57600080fd5b600061421d87828801613fea565b945050602061422e87828801613fea565b935050604061423f8782880161411b565b925050606085013567ffffffffffffffff81111561425c57600080fd5b614268878288016140c7565b91505092959194509250565b6000806040838503121561428757600080fd5b600061429585828601613fea565b92505060206142a685828601614073565b9150509250929050565b600080604083850312156142c357600080fd5b60006142d185828601613fea565b92505060206142e28582860161411b565b9150509250929050565b600080602083850312156142ff57600080fd5b600083013567ffffffffffffffff81111561431957600080fd5b61432585828601613fff565b92509250509250929050565b60006020828403121561434357600080fd5b600082015167ffffffffffffffff81111561435d57600080fd5b61436984828501614049565b91505092915050565b60006020828403121561438457600080fd5b600061439284828501614073565b91505092915050565b6000602082840312156143ad57600080fd5b60006143bb84828501614088565b91505092915050565b6000602082840312156143d657600080fd5b60006143e48482850161409d565b91505092915050565b6000602082840312156143ff57600080fd5b600061440d848285016140b2565b91505092915050565b60006020828403121561442857600080fd5b600082013567ffffffffffffffff81111561444257600080fd5b61444e848285016140f1565b91505092915050565b60006020828403121561446957600080fd5b60006144778482850161411b565b91505092915050565b60006020828403121561449257600080fd5b60006144a084828501614130565b91505092915050565b600080604083850312156144bc57600080fd5b60006144ca8582860161411b565b92505060206144db8582860161411b565b9150509250929050565b60006144f18383614b19565b60208301905092915050565b6145068161536f565b82525050565b6000614517826151ee565b614521818561521c565b935061452c836151c9565b8060005b8381101561455d57815161454488826144e5565b975061454f8361520f565b925050600181019050614530565b5085935050505092915050565b61457381615381565b82525050565b6000614584826151f9565b61458e818561522d565b935061459e81856020860161543a565b6145a781615606565b840191505092915050565b6145bb816153e3565b82525050565b6145ca81615407565b82525050565b60006145db82615204565b6145e5818561523e565b93506145f581856020860161543a565b6145fe81615606565b840191505092915050565b600061461482615204565b61461e818561524f565b935061462e81856020860161543a565b80840191505092915050565b600081546146478161546d565b614651818661524f565b9450600182166000811461466c576001811461467d576146b0565b60ff198316865281860193506146b0565b614686856151d9565b60005b838110156146a857815481890152600182019150602081019050614689565b838801955050505b50505092915050565b60006146c6600e8361523e565b91506146d182615617565b602082019050919050565b60006146e960178361523e565b91506146f482615640565b602082019050919050565b600061470c602b8361523e565b915061471782615669565b604082019050919050565b600061472f60328361523e565b915061473a826156b8565b604082019050919050565b600061475260268361523e565b915061475d82615707565b604082019050919050565b6000614775601c8361523e565b915061478082615756565b602082019050919050565b6000614798601c8361523e565b91506147a38261577f565b602082019050919050565b60006147bb60248361523e565b91506147c6826157a8565b604082019050919050565b60006147de60198361523e565b91506147e9826157f7565b602082019050919050565b600061480160188361523e565b915061480c82615820565b602082019050919050565b6000614824600e8361523e565b915061482f82615849565b602082019050919050565b6000614847602c8361523e565b915061485282615872565b604082019050919050565b600061486a60388361523e565b9150614875826158c1565b604082019050919050565b600061488d602a8361523e565b915061489882615910565b604082019050919050565b60006148b060298361523e565b91506148bb8261595f565b604082019050919050565b60006148d360178361523e565b91506148de826159ae565b602082019050919050565b60006148f660178361523e565b9150614901826159d7565b602082019050919050565b600061491960168361523e565b915061492482615a00565b602082019050919050565b600061493c60178361523e565b915061494782615a29565b602082019050919050565b600061495f60208361523e565b915061496a82615a52565b602082019050919050565b6000614982602c8361523e565b915061498d82615a7b565b604082019050919050565b60006149a560058361524f565b91506149b082615aca565b600582019050919050565b60006149c860208361523e565b91506149d382615af3565b602082019050919050565b60006149eb60298361523e565b91506149f682615b1c565b604082019050919050565b6000614a0e60128361523e565b9150614a1982615b6b565b602082019050919050565b6000614a3160218361523e565b9150614a3c82615b94565b604082019050919050565b6000614a5460208361523e565b9150614a5f82615be3565b602082019050919050565b6000614a7760318361523e565b9150614a8282615c0c565b604082019050919050565b6000614a9a601c8361523e565b9150614aa582615c5b565b602082019050919050565b6000614abd602c8361523e565b9150614ac882615c84565b604082019050919050565b6000614ae060218361523e565b9150614aeb82615cd3565b604082019050919050565b6000614b03601f8361523e565b9150614b0e82615d22565b602082019050919050565b614b22816153d9565b82525050565b614b31816153d9565b82525050565b6000614b43828561463a565b9150614b4f8284614609565b9150614b5a82614998565b91508190509392505050565b6000602082019050614b7b60008301846144fd565b92915050565b6000606082019050614b9660008301866144fd565b614ba360208301856144fd565b614bb06040830184614b28565b949350505050565b6000608082019050614bcd60008301876144fd565b614bda60208301866144fd565b614be76040830185614b28565b8181036060830152614bf98184614579565b905095945050505050565b6000604082019050614c1960008301856144fd565b614c266020830184614b28565b9392505050565b60006020820190508181036000830152614c47818461450c565b905092915050565b6000602082019050614c64600083018461456a565b92915050565b6000602082019050614c7f60008301846145b2565b92915050565b6000602082019050614c9a60008301846145c1565b92915050565b60006020820190508181036000830152614cba81846145d0565b905092915050565b60006040820190508181036000830152614cdc81856145d0565b9050614ceb6020830184614b28565b9392505050565b60006020820190508181036000830152614d0b816146b9565b9050919050565b60006020820190508181036000830152614d2b816146dc565b9050919050565b60006020820190508181036000830152614d4b816146ff565b9050919050565b60006020820190508181036000830152614d6b81614722565b9050919050565b60006020820190508181036000830152614d8b81614745565b9050919050565b60006020820190508181036000830152614dab81614768565b9050919050565b60006020820190508181036000830152614dcb8161478b565b9050919050565b60006020820190508181036000830152614deb816147ae565b9050919050565b60006020820190508181036000830152614e0b816147d1565b9050919050565b60006020820190508181036000830152614e2b816147f4565b9050919050565b60006020820190508181036000830152614e4b81614817565b9050919050565b60006020820190508181036000830152614e6b8161483a565b9050919050565b60006020820190508181036000830152614e8b8161485d565b9050919050565b60006020820190508181036000830152614eab81614880565b9050919050565b60006020820190508181036000830152614ecb816148a3565b9050919050565b60006020820190508181036000830152614eeb816148c6565b9050919050565b60006020820190508181036000830152614f0b816148e9565b9050919050565b60006020820190508181036000830152614f2b8161490c565b9050919050565b60006020820190508181036000830152614f4b8161492f565b9050919050565b60006020820190508181036000830152614f6b81614952565b9050919050565b60006020820190508181036000830152614f8b81614975565b9050919050565b60006020820190508181036000830152614fab816149bb565b9050919050565b60006020820190508181036000830152614fcb816149de565b9050919050565b60006020820190508181036000830152614feb81614a01565b9050919050565b6000602082019050818103600083015261500b81614a24565b9050919050565b6000602082019050818103600083015261502b81614a47565b9050919050565b6000602082019050818103600083015261504b81614a6a565b9050919050565b6000602082019050818103600083015261506b81614a8d565b9050919050565b6000602082019050818103600083015261508b81614ab0565b9050919050565b600060208201905081810360008301526150ab81614ad3565b9050919050565b600060208201905081810360008301526150cb81614af6565b9050919050565b60006020820190506150e76000830184614b28565b92915050565b60006040820190506151026000830185614b28565b61510f6020830184614b28565b9392505050565b6000615120615131565b905061512c828261549f565b919050565b6000604051905090565b600067ffffffffffffffff821115615156576151556155d7565b5b602082029050602081019050919050565b600067ffffffffffffffff821115615182576151816155d7565b5b61518b82615606565b9050602081019050919050565b600067ffffffffffffffff8211156151b3576151b26155d7565b5b6151bc82615606565b9050602081019050919050565b6000819050602082019050919050565b60008190508160005260206000209050919050565b600081519050919050565b600081519050919050565b600081519050919050565b6000602082019050919050565b600082825260208201905092915050565b600082825260208201905092915050565b600082825260208201905092915050565b600081905092915050565b6000615265826153d9565b9150615270836153d9565b9250827fffffffffffffffffffffffffffffffffffffffffffffffffffffffffffffffff038211156152a5576152a461554a565b5b828201905092915050565b60006152bb826153d9565b91506152c6836153d9565b9250826152d6576152d5615579565b5b828204905092915050565b60006152ec826153d9565b91506152f7836153d9565b9250817fffffffffffffffffffffffffffffffffffffffffffffffffffffffffffffffff04831182151516156153305761532f61554a565b5b828202905092915050565b6000615346826153d9565b9150615351836153d9565b9250828210156153645761536361554a565b5b828203905092915050565b600061537a826153b9565b9050919050565b60008115159050919050565b60007fffffffff0000000000000000000000000000000000000000000000000000000082169050919050565b600073ffffffffffffffffffffffffffffffffffffffff82169050919050565b6000819050919050565b60006153ee826153f5565b9050919050565b6000615400826153b9565b9050919050565b600061541282615419565b9050919050565b6000615424826153b9565b9050919050565b82818337600083830152505050565b60005b8381101561545857808201518184015260208101905061543d565b83811115615467576000848401525b50505050565b6000600282049050600182168061548557607f821691505b60208210811415615499576154986155a8565b5b50919050565b6154a882615606565b810181811067ffffffffffffffff821117156154c7576154c66155d7565b5b80604052505050565b60006154db826153d9565b91507fffffffffffffffffffffffffffffffffffffffffffffffffffffffffffffffff82141561550e5761550d61554a565b5b600182019050919050565b6000615524826153d9565b915061552f836153d9565b92508261553f5761553e615579565b5b828206905092915050565b7f4e487b7100000000000000000000000000000000000000000000000000000000600052601160045260246000fd5b7f4e487b7100000000000000000000000000000000000000000000000000000000600052601260045260246000fd5b7f4e487b7100000000000000000000000000000000000000000000000000000000600052602260045260246000fd5b7f4e487b7100000000000000000000000000000000000000000000000000000000600052604160045260246000fd5b6000601f19601f8301169050919050565b7f546f6f206d616e79206c616e6473000000000000000000000000000000000000600082015250565b7f63616e6e6f74206d696e74206d6f7265207468616e2033000000000000000000600082015250565b7f455243373231456e756d657261626c653a206f776e657220696e646578206f7560008201527f74206f6620626f756e6473000000000000000000000000000000000000000000602082015250565b7f4552433732313a207472616e7366657220746f206e6f6e20455243373231526560008201527f63656976657220696d706c656d656e7465720000000000000000000000000000602082015250565b7f4f776e61626c653a206e6577206f776e657220697320746865207a65726f206160008201527f6464726573730000000000000000000000000000000000000000000000000000602082015250565b7f4552433732313a20746f6b656e20616c7265616479206d696e74656400000000600082015250565b7f6d75737420686f6c64206174206c656173742031206675644661726d00000000600082015250565b7f4552433732313a207472616e7366657220746f20746865207a65726f2061646460008201527f7265737300000000000000000000000000000000000000000000000000000000602082015250565b7f4552433732313a20617070726f766520746f2063616c6c657200000000000000600082015250565b7f70726573616c6520686173206e6f7420737461727465642e0000000000000000600082015250565b7f414c4c20424f55474854204f5554000000000000000000000000000000000000600082015250565b7f4552433732313a206f70657261746f7220717565727920666f72206e6f6e657860008201527f697374656e7420746f6b656e0000000000000000000000000000000000000000602082015250565b7f4552433732313a20617070726f76652063616c6c6572206973206e6f74206f7760008201527f6e6572206e6f7220617070726f76656420666f7220616c6c0000000000000000602082015250565b7f4552433732313a2062616c616e636520717565727920666f7220746865207a6560008201527f726f206164647265737300000000000000000000000000000000000000000000602082015250565b7f4552433732313a206f776e657220717565727920666f72206e6f6e657869737460008201527f656e7420746f6b656e0000000000000000000000000000000000000000000000602082015250565b7f63616e6e6f742068617665206d6f7265207468616e2037000000000000000000600082015250565b7f63616e6e6f742068617665206d6f7265207468616e2033000000000000000000600082015250565b7f4578636565642063726f7020616c6c6f636174696f6e00000000000000000000600082015250565b7f746f6b656e496420646f6573206e6f742065786973742e000000000000000000600082015250565b7f4552433732313a206d696e7420746f20746865207a65726f2061646472657373600082015250565b7f4552433732313a20617070726f76656420717565727920666f72206e6f6e657860008201527f697374656e7420746f6b656e0000000000000000000000000000000000000000602082015250565b7f2e6a736f6e000000000000000000000000000000000000000000000000000000600082015250565b7f4f776e61626c653a2063616c6c6572206973206e6f7420746865206f776e6572600082015250565b7f4552433732313a207472616e73666572206f6620746f6b656e2074686174206960008201527f73206e6f74206f776e0000000000000000000000000000000000000000000000602082015250565b7f657863656564206d617820737570706c792e0000000000000000000000000000600082015250565b7f4552433732313a20617070726f76616c20746f2063757272656e74206f776e6560008201527f7200000000000000000000000000000000000000000000000000000000000000602082015250565b7f76616c7565206572726f722c20706c6561736520636865636b2070726963652e600082015250565b7f4552433732313a207472616e736665722063616c6c6572206973206e6f74206f60008201527f776e6572206e6f7220617070726f766564000000000000000000000000000000602082015250565b7f6d757374206265206f6e2070726573616c652077686974656c69737400000000600082015250565b7f455243373231456e756d657261626c653a20676c6f62616c20696e646578206f60008201527f7574206f6620626f756e64730000000000000000000000000000000000000000602082015250565b7f4c616e642073616c652061696e277420737461727465642c20706172746e657260008201527f2e00000000000000000000000000000000000000000000000000000000000000602082015250565b7f76616c7565206572726f722c20706c6561736520636865636b20707269636500600082015250565b615d548161536f565b8114615d5f57600080fd5b50565b615d6b81615381565b8114615d7657600080fd5b50565b615d828161538d565b8114615d8d57600080fd5b50565b615d99816153d9565b8114615da457600080fd5b5056fea2646970667358221220f26b624d7b25e5322b718e1641ae489d94259f06450cb6aca9d0d2c0bafdd05a64736f6c63430008040033",
  "linkReferences": {},
  "deployedLinkReferences": {}
}