{
  "_format": "hh-sol-artifact-1",
  "contractName": "FudFarmGenesis",
  "sourceName": "contracts/FudFarmGenesis.sol",
  "abi": [
    {
      "inputs": [
        {
          "internalType": "string",
          "name": "name_",
          "type": "string"
        },
        {
          "internalType": "string",
          "name": "symbol_",
          "type": "string"
        },
        {
          "internalType": "string",
          "name": "baseURI_",
          "type": "string"
        },
        {
          "internalType": "address",
          "name": "_fudFarmAddress",
          "type": "address"
        },
        {
          "internalType": "address",
          "name": "_cropAddress",
          "type": "address"
        },
        {
          "internalType": "address",
          "name": "_stakeAddress",
          "type": "address"
        }
      ],
      "stateMutability": "nonpayable",
      "type": "constructor"
    },
    {
      "anonymous": false,
      "inputs": [
        {
          "indexed": true,
          "internalType": "address",
          "name": "owner",
          "type": "address"
        },
        {
          "indexed": true,
          "internalType": "address",
          "name": "approved",
          "type": "address"
        },
        {
          "indexed": true,
          "internalType": "uint256",
          "name": "tokenId",
          "type": "uint256"
        }
      ],
      "name": "Approval",
      "type": "event"
    },
    {
      "anonymous": false,
      "inputs": [
        {
          "indexed": true,
          "internalType": "address",
          "name": "owner",
          "type": "address"
        },
        {
          "indexed": true,
          "internalType": "address",
          "name": "operator",
          "type": "address"
        },
        {
          "indexed": false,
          "internalType": "bool",
          "name": "approved",
          "type": "bool"
        }
      ],
      "name": "ApprovalForAll",
      "type": "event"
    },
    {
      "anonymous": false,
      "inputs": [
        {
          "indexed": true,
          "internalType": "address",
          "name": "sender",
          "type": "address"
        },
        {
          "indexed": false,
          "internalType": "uint256",
          "name": "startWith",
          "type": "uint256"
        },
        {
          "indexed": false,
          "internalType": "uint256",
          "name": "times",
          "type": "uint256"
        }
      ],
      "name": "Mint",
      "type": "event"
    },
    {
      "anonymous": false,
      "inputs": [
        {
          "indexed": true,
          "internalType": "address",
          "name": "previousOwner",
          "type": "address"
        },
        {
          "indexed": true,
          "internalType": "address",
          "name": "newOwner",
          "type": "address"
        }
      ],
      "name": "OwnershipTransferred",
      "type": "event"
    },
    {
      "anonymous": false,
      "inputs": [
        {
          "indexed": true,
          "internalType": "address",
          "name": "from",
          "type": "address"
        },
        {
          "indexed": true,
          "internalType": "address",
          "name": "to",
          "type": "address"
        },
        {
          "indexed": true,
          "internalType": "uint256",
          "name": "tokenId",
          "type": "uint256"
        }
      ],
      "name": "Transfer",
      "type": "event"
    },
    {
      "inputs": [
        {
          "internalType": "address[]",
          "name": "_addresses",
          "type": "address[]"
        }
      ],
      "name": "addToWhitelist",
      "outputs": [],
      "stateMutability": "nonpayable",
      "type": "function"
    },
    {
      "inputs": [
        {
          "internalType": "address",
          "name": "to",
          "type": "address"
        },
        {
          "internalType": "uint256",
          "name": "tokenId",
          "type": "uint256"
        }
      ],
      "name": "approve",
      "outputs": [],
      "stateMutability": "nonpayable",
      "type": "function"
    },
    {
      "inputs": [
        {
          "internalType": "address",
          "name": "owner",
          "type": "address"
        }
      ],
      "name": "balanceOf",
      "outputs": [
        {
          "internalType": "uint256",
          "name": "",
          "type": "uint256"
        }
      ],
      "stateMutability": "view",
      "type": "function"
    },
    {
      "inputs": [],
      "name": "baseURI",
      "outputs": [
        {
          "internalType": "string",
          "name": "",
          "type": "string"
        }
      ],
      "stateMutability": "view",
      "type": "function"
    },
    {
      "inputs": [],
      "name": "contractAddress",
      "outputs": [
        {
          "internalType": "address",
          "name": "",
          "type": "address"
        }
      ],
      "stateMutability": "view",
      "type": "function"
    },
    {
      "inputs": [],
      "name": "cropAddress",
      "outputs": [
        {
          "internalType": "contract IERC20",
          "name": "",
          "type": "address"
        }
      ],
      "stateMutability": "view",
      "type": "function"
    },
    {
      "inputs": [],
      "name": "cropPrice",
      "outputs": [
        {
          "internalType": "uint256",
          "name": "",
          "type": "uint256"
        }
      ],
      "stateMutability": "view",
      "type": "function"
    },
    {
      "inputs": [
        {
          "internalType": "uint256",
          "name": "_times",
          "type": "uint256"
        }
      ],
      "name": "devMint",
      "outputs": [],
      "stateMutability": "nonpayable",
      "type": "function"
    },
    {
      "inputs": [],
      "name": "fudFarmAddress",
      "outputs": [
        {
          "internalType": "contract IERC721",
          "name": "",
          "type": "address"
        }
      ],
      "stateMutability": "view",
      "type": "function"
    },
    {
      "inputs": [
        {
          "internalType": "uint256",
          "name": "tokenId",
          "type": "uint256"
        }
      ],
      "name": "getApproved",
      "outputs": [
        {
          "internalType": "address",
          "name": "",
          "type": "address"
        }
      ],
      "stateMutability": "view",
      "type": "function"
    },
    {
      "inputs": [
        {
          "internalType": "address",
          "name": "owner",
          "type": "address"
        },
        {
          "internalType": "address",
          "name": "operator",
          "type": "address"
        }
      ],
      "name": "isApprovedForAll",
      "outputs": [
        {
          "internalType": "bool",
          "name": "",
          "type": "bool"
        }
      ],
      "stateMutability": "view",
      "type": "function"
    },
    {
      "inputs": [
        {
          "internalType": "uint256",
          "name": "_times",
          "type": "uint256"
        }
      ],
      "name": "mint",
      "outputs": [],
      "stateMutability": "payable",
      "type": "function"
    },
    {
      "inputs": [],
      "name": "name",
      "outputs": [
        {
          "internalType": "string",
          "name": "",
          "type": "string"
        }
      ],
      "stateMutability": "view",
      "type": "function"
    },
    {
      "inputs": [],
      "name": "owner",
      "outputs": [
        {
          "internalType": "address",
          "name": "",
          "type": "address"
        }
      ],
      "stateMutability": "view",
      "type": "function"
    },
    {
      "inputs": [
        {
          "internalType": "uint256",
          "name": "tokenId",
          "type": "uint256"
        }
      ],
      "name": "ownerOf",
      "outputs": [
        {
          "internalType": "address",
          "name": "",
          "type": "address"
        }
      ],
      "stateMutability": "view",
      "type": "function"
    },
    {
      "inputs": [],
      "name": "presaleMaxWallet",
      "outputs": [
        {
          "internalType": "uint256",
          "name": "",
          "type": "uint256"
        }
      ],
      "stateMutability": "view",
      "type": "function"
    },
    {
      "inputs": [
        {
          "internalType": "uint256",
          "name": "_times",
          "type": "uint256"
        },
        {
          "internalType": "uint256",
          "name": "_cropAmount",
          "type": "uint256"
        }
      ],
      "name": "presaleMint",
      "outputs": [],
      "stateMutability": "nonpayable",
      "type": "function"
    },
    {
      "inputs": [],
      "name": "presaleTotal",
      "outputs": [
        {
          "internalType": "uint256",
          "name": "",
          "type": "uint256"
        }
      ],
      "stateMutability": "view",
      "type": "function"
    },
    {
      "inputs": [
        {
          "internalType": "address",
          "name": "",
          "type": "address"
        }
      ],
      "name": "presaleWhitelist",
      "outputs": [
        {
          "internalType": "bool",
          "name": "",
          "type": "bool"
        }
      ],
      "stateMutability": "view",
      "type": "function"
    },
    {
      "inputs": [],
      "name": "price",
      "outputs": [
        {
          "internalType": "uint256",
          "name": "",
          "type": "uint256"
        }
      ],
      "stateMutability": "view",
      "type": "function"
    },
    {
      "inputs": [],
      "name": "publicMaxWallet",
      "outputs": [
        {
          "internalType": "uint256",
          "name": "",
          "type": "uint256"
        }
      ],
      "stateMutability": "view",
      "type": "function"
    },
    {
      "inputs": [
        {
          "internalType": "uint256",
          "name": "_times",
          "type": "uint256"
        },
        {
          "internalType": "uint256",
          "name": "_cropAmount",
          "type": "uint256"
        }
      ],
      "name": "publicMint",
      "outputs": [],
      "stateMutability": "nonpayable",
      "type": "function"
    },
    {
      "inputs": [],
      "name": "renounceOwnership",
      "outputs": [],
      "stateMutability": "nonpayable",
      "type": "function"
    },
    {
      "inputs": [
        {
          "internalType": "address",
          "name": "from",
          "type": "address"
        },
        {
          "internalType": "address",
          "name": "to",
          "type": "address"
        },
        {
          "internalType": "uint256",
          "name": "tokenId",
          "type": "uint256"
        }
      ],
      "name": "safeTransferFrom",
      "outputs": [],
      "stateMutability": "nonpayable",
      "type": "function"
    },
    {
      "inputs": [
        {
          "internalType": "address",
          "name": "from",
          "type": "address"
        },
        {
          "internalType": "address",
          "name": "to",
          "type": "address"
        },
        {
          "internalType": "uint256",
          "name": "tokenId",
          "type": "uint256"
        },
        {
          "internalType": "bytes",
          "name": "_data",
          "type": "bytes"
        }
      ],
      "name": "safeTransferFrom",
      "outputs": [],
      "stateMutability": "nonpayable",
      "type": "function"
    },
    {
      "inputs": [
        {
          "internalType": "address",
          "name": "operator",
          "type": "address"
        },
        {
          "internalType": "bool",
          "name": "approved",
          "type": "bool"
        }
      ],
      "name": "setApprovalForAll",
      "outputs": [],
      "stateMutability": "nonpayable",
      "type": "function"
    },
    {
      "inputs": [
        {
          "internalType": "string",
          "name": "_newURI",
          "type": "string"
        }
      ],
      "name": "setBaseURI",
      "outputs": [],
      "stateMutability": "nonpayable",
      "type": "function"
    },
    {
      "inputs": [
        {
          "internalType": "bool",
          "name": "_start",
          "type": "bool"
        }
      ],
      "name": "setPresaleStart",
      "outputs": [],
      "stateMutability": "nonpayable",
      "type": "function"
    },
    {
      "inputs": [
        {
          "internalType": "bool",
          "name": "_start",
          "type": "bool"
        }
      ],
      "name": "setPublicStart",
      "outputs": [],
      "stateMutability": "nonpayable",
      "type": "function"
    },
    {
      "inputs": [
        {
          "internalType": "bool",
          "name": "_start",
          "type": "bool"
        }
      ],
      "name": "setStart",
      "outputs": [],
      "stateMutability": "nonpayable",
      "type": "function"
    },
    {
      "inputs": [],
      "name": "stakeAddress",
      "outputs": [
        {
          "internalType": "address",
          "name": "",
          "type": "address"
        }
      ],
      "stateMutability": "view",
      "type": "function"
    },
    {
      "inputs": [
        {
          "internalType": "bytes4",
          "name": "interfaceId",
          "type": "bytes4"
        }
      ],
      "name": "supportsInterface",
      "outputs": [
        {
          "internalType": "bool",
          "name": "",
          "type": "bool"
        }
      ],
      "stateMutability": "view",
      "type": "function"
    },
    {
      "inputs": [],
      "name": "symbol",
      "outputs": [
        {
          "internalType": "string",
          "name": "",
          "type": "string"
        }
      ],
      "stateMutability": "view",
      "type": "function"
    },
    {
      "inputs": [
        {
          "internalType": "uint256",
          "name": "index",
          "type": "uint256"
        }
      ],
      "name": "tokenByIndex",
      "outputs": [
        {
          "internalType": "uint256",
          "name": "",
          "type": "uint256"
        }
      ],
      "stateMutability": "view",
      "type": "function"
    },
    {
      "inputs": [
        {
          "internalType": "address",
          "name": "owner",
          "type": "address"
        },
        {
          "internalType": "uint256",
          "name": "index",
          "type": "uint256"
        }
      ],
      "name": "tokenOfOwnerByIndex",
      "outputs": [
        {
          "internalType": "uint256",
          "name": "",
          "type": "uint256"
        }
      ],
      "stateMutability": "view",
      "type": "function"
    },
    {
      "inputs": [
        {
          "internalType": "uint256",
          "name": "tokenId",
          "type": "uint256"
        }
      ],
      "name": "tokenURI",
      "outputs": [
        {
          "internalType": "string",
          "name": "",
          "type": "string"
        }
      ],
      "stateMutability": "view",
      "type": "function"
    },
    {
      "inputs": [
        {
          "internalType": "address",
          "name": "owner",
          "type": "address"
        }
      ],
      "name": "tokensOfOwner",
      "outputs": [
        {
          "internalType": "uint256[]",
          "name": "",
          "type": "uint256[]"
        }
      ],
      "stateMutability": "view",
      "type": "function"
    },
    {
      "inputs": [],
      "name": "total",
      "outputs": [
        {
          "internalType": "uint256",
          "name": "",
          "type": "uint256"
        }
      ],
      "stateMutability": "view",
      "type": "function"
    },
    {
      "inputs": [],
      "name": "totalCrop",
      "outputs": [
        {
          "internalType": "uint256",
          "name": "",
          "type": "uint256"
        }
      ],
      "stateMutability": "view",
      "type": "function"
    },
    {
      "inputs": [],
      "name": "totalEth",
      "outputs": [
        {
          "internalType": "uint256",
          "name": "",
          "type": "uint256"
        }
      ],
      "stateMutability": "view",
      "type": "function"
    },
    {
      "inputs": [],
      "name": "totalMax",
      "outputs": [
        {
          "internalType": "uint256",
          "name": "",
          "type": "uint256"
        }
      ],
      "stateMutability": "view",
      "type": "function"
    },
    {
      "inputs": [],
      "name": "totalSupply",
      "outputs": [
        {
          "internalType": "uint256",
          "name": "",
          "type": "uint256"
        }
      ],
      "stateMutability": "view",
      "type": "function"
    },
    {
      "inputs": [
        {
          "internalType": "address",
          "name": "from",
          "type": "address"
        },
        {
          "internalType": "address",
          "name": "to",
          "type": "address"
        },
        {
          "internalType": "uint256",
          "name": "tokenId",
          "type": "uint256"
        }
      ],
      "name": "transferFrom",
      "outputs": [],
      "stateMutability": "nonpayable",
      "type": "function"
    },
    {
      "inputs": [
        {
          "internalType": "address",
          "name": "newOwner",
          "type": "address"
        }
      ],
      "name": "transferOwnership",
      "outputs": [],
      "stateMutability": "nonpayable",
      "type": "function"
    },
    {
      "inputs": [],
      "name": "withdrawCrop",
      "outputs": [],
      "stateMutability": "nonpayable",
      "type": "function"
    }
  ],
  "bytecode": "0x60806040526032600d556101f4600e55610115600f5560036010556007601155610309601255668e1bc9bf0400006013556815af1d78b58c4000006014553480156200004a57600080fd5b5060405162006265380380620062658339818101604052810190620000709190620003f6565b858581600090805190602001906200008a929190620002bd565b508060019080519060200190620000a3929190620002bd565b505050620000c6620000ba620001ef60201b60201c565b620001f760201b60201c565b8360159080519060200190620000de929190620002bd565b5082601660036101000a81548173ffffffffffffffffffffffffffffffffffffffff021916908373ffffffffffffffffffffffffffffffffffffffff16021790555081601760006101000a81548173ffffffffffffffffffffffffffffffffffffffff021916908373ffffffffffffffffffffffffffffffffffffffff16021790555080601960006101000a81548173ffffffffffffffffffffffffffffffffffffffff021916908373ffffffffffffffffffffffffffffffffffffffff16021790555030601860006101000a81548173ffffffffffffffffffffffffffffffffffffffff021916908373ffffffffffffffffffffffffffffffffffffffff16021790555050505050505062000695565b600033905090565b6000600a60009054906101000a900473ffffffffffffffffffffffffffffffffffffffff16905081600a60006101000a81548173ffffffffffffffffffffffffffffffffffffffff021916908373ffffffffffffffffffffffffffffffffffffffff1602179055508173ffffffffffffffffffffffffffffffffffffffff168173ffffffffffffffffffffffffffffffffffffffff167f8be0079c531659141344cd1fd0a4f28419497f9722a3daafe3b4186f6b6457e060405160405180910390a35050565b828054620002cb90620005a0565b90600052602060002090601f016020900481019282620002ef57600085556200033b565b82601f106200030a57805160ff19168380011785556200033b565b828001600101855582156200033b579182015b828111156200033a5782518255916020019190600101906200031d565b5b5090506200034a91906200034e565b5090565b5b80821115620003695760008160009055506001016200034f565b5090565b6000620003846200037e8462000500565b620004d7565b9050828152602081018484840111156200039d57600080fd5b620003aa8482856200056a565b509392505050565b600081519050620003c3816200067b565b92915050565b600082601f830112620003db57600080fd5b8151620003ed8482602086016200036d565b91505092915050565b60008060008060008060c087890312156200041057600080fd5b600087015167ffffffffffffffff8111156200042b57600080fd5b6200043989828a01620003c9565b965050602087015167ffffffffffffffff8111156200045757600080fd5b6200046589828a01620003c9565b955050604087015167ffffffffffffffff8111156200048357600080fd5b6200049189828a01620003c9565b9450506060620004a489828a01620003b2565b9350506080620004b789828a01620003b2565b92505060a0620004ca89828a01620003b2565b9150509295509295509295565b6000620004e3620004f6565b9050620004f18282620005d6565b919050565b6000604051905090565b600067ffffffffffffffff8211156200051e576200051d6200063b565b5b62000529826200066a565b9050602081019050919050565b600062000543826200054a565b9050919050565b600073ffffffffffffffffffffffffffffffffffffffff82169050919050565b60005b838110156200058a5780820151818401526020810190506200056d565b838111156200059a576000848401525b50505050565b60006002820490506001821680620005b957607f821691505b60208210811415620005d057620005cf6200060c565b5b50919050565b620005e1826200066a565b810181811067ffffffffffffffff821117156200060357620006026200063b565b5b80604052505050565b7f4e487b7100000000000000000000000000000000000000000000000000000000600052602260045260246000fd5b7f4e487b7100000000000000000000000000000000000000000000000000000000600052604160045260246000fd5b6000601f19601f8301169050919050565b620006868162000536565b81146200069257600080fd5b50565b615bc080620006a56000396000f3fe6080604052600436106102725760003560e01c80637f6497831161014f578063a22cb465116100c1578063d4a770ad1161007a578063d4a770ad14610943578063dc1d85f61461096e578063e985e9c514610999578063eb8835ab146109d6578063f2fde38b14610a13578063f6b4dfb414610a3c57610272565b8063a22cb46514610833578063a29eed921461085c578063a37f85a114610887578063b88d4fde146108b2578063c50a2ac2146108db578063c87b56dd1461090657610272565b80638da5cb5b116101135780638da5cb5b14610744578063933830851461076f57806395d89b411461079857806398ae99a8146107c3578063a035b1fe146107ec578063a0712d681461081757610272565b80637f6497831461065d57806380906197146106865780638462151c146106b157806385107367146106ee5780638cb5367f1461071957610272565b806342842e0e116101e857806364feb7ca116101ac57806364feb7ca146105755780636555dc401461059e57806368e24327146105b55780636c0360eb146105de57806370a0823114610609578063715018a61461064657610272565b806342842e0e146104805780634f6ccce7146104a957806355f804b3146104e657806358dd175d1461050f5780636352211e1461053857610272565b806318160ddd1161023a57806318160ddd1461037057806323b872dd1461039b5780632ddbd13a146103c45780632f745c59146103ef578063375a069a1461042c5780633c3c9c231461045557610272565b806301ffc9a71461027757806306fdde03146102b4578063081812fc146102df578063095ea7b31461031c57806310cd0c9d14610345575b600080fd5b34801561028357600080fd5b5061029e600480360381019061029991906141d7565b610a67565b6040516102ab9190614a62565b60405180910390f35b3480156102c057600080fd5b506102c9610ae1565b6040516102d69190614ab3565b60405180910390f35b3480156102eb57600080fd5b506103066004803603810190610301919061426a565b610b73565b6040516103139190614979565b60405180910390f35b34801561032857600080fd5b50610343600480360381019061033e91906140c3565b610bf8565b005b34801561035157600080fd5b5061035a610d10565b6040516103679190614eb5565b60405180910390f35b34801561037c57600080fd5b50610385610d16565b6040516103929190614eb5565b60405180910390f35b3480156103a757600080fd5b506103c260048036038101906103bd9190613fbd565b610d23565b005b3480156103d057600080fd5b506103d9610d83565b6040516103e69190614eb5565b60405180910390f35b3480156103fb57600080fd5b50610416600480360381019061041191906140c3565b610d89565b6040516104239190614eb5565b60405180910390f35b34801561043857600080fd5b50610453600480360381019061044e919061426a565b610e2e565b005b34801561046157600080fd5b5061046a610fb6565b6040516104779190614eb5565b60405180910390f35b34801561048c57600080fd5b506104a760048036038101906104a29190613fbd565b610fbc565b005b3480156104b557600080fd5b506104d060048036038101906104cb919061426a565b610fdc565b6040516104dd9190614eb5565b60405180910390f35b3480156104f257600080fd5b5061050d60048036038101906105089190614229565b611073565b005b34801561051b57600080fd5b50610536600480360381019061053191906142bc565b611109565b005b34801561054457600080fd5b5061055f600480360381019061055a919061426a565b611527565b60405161056c9190614979565b60405180910390f35b34801561058157600080fd5b5061059c60048036038101906105979190614185565b6115d9565b005b3480156105aa57600080fd5b506105b3611672565b005b3480156105c157600080fd5b506105dc60048036038101906105d79190614185565b611857565b005b3480156105ea57600080fd5b506105f36118f0565b6040516106009190614ab3565b60405180910390f35b34801561061557600080fd5b50610630600480360381019061062b9190613f58565b61197e565b60405161063d9190614eb5565b60405180910390f35b34801561065257600080fd5b5061065b611a36565b005b34801561066957600080fd5b50610684600480360381019061067f91906140ff565b611abe565b005b34801561069257600080fd5b5061069b611c05565b6040516106a89190614a98565b60405180910390f35b3480156106bd57600080fd5b506106d860048036038101906106d39190613f58565b611c2b565b6040516106e59190614a40565b60405180910390f35b3480156106fa57600080fd5b50610703611d25565b6040516107109190614979565b60405180910390f35b34801561072557600080fd5b5061072e611d4b565b60405161073b9190614eb5565b60405180910390f35b34801561075057600080fd5b50610759611d51565b6040516107669190614979565b60405180910390f35b34801561077b57600080fd5b5061079660048036038101906107919190614185565b611d7b565b005b3480156107a457600080fd5b506107ad611e14565b6040516107ba9190614ab3565b60405180910390f35b3480156107cf57600080fd5b506107ea60048036038101906107e591906142bc565b611ea6565b005b3480156107f857600080fd5b506108016123e6565b60405161080e9190614eb5565b60405180910390f35b610831600480360381019061082c919061426a565b6123ec565b005b34801561083f57600080fd5b5061085a60048036038101906108559190614087565b612724565b005b34801561086857600080fd5b5061087161273a565b60405161087e9190614a7d565b60405180910390f35b34801561089357600080fd5b5061089c612760565b6040516108a99190614eb5565b60405180910390f35b3480156108be57600080fd5b506108d960048036038101906108d4919061400c565b612766565b005b3480156108e757600080fd5b506108f06127c8565b6040516108fd9190614eb5565b60405180910390f35b34801561091257600080fd5b5061092d6004803603810190610928919061426a565b6127ce565b60405161093a9190614ab3565b60405180910390f35b34801561094f57600080fd5b5061095861289c565b6040516109659190614eb5565b60405180910390f35b34801561097a57600080fd5b506109836128a2565b6040516109909190614eb5565b60405180910390f35b3480156109a557600080fd5b506109c060048036038101906109bb9190613f81565b6128a8565b6040516109cd9190614a62565b60405180910390f35b3480156109e257600080fd5b506109fd60048036038101906109f89190613f58565b61293c565b604051610a0a9190614a62565b60405180910390f35b348015610a1f57600080fd5b50610a3a6004803603810190610a359190613f58565b61295c565b005b348015610a4857600080fd5b50610a51612a54565b604051610a5e9190614979565b60405180910390f35b60007f780e9d63000000000000000000000000000000000000000000000000000000007bffffffffffffffffffffffffffffffffffffffffffffffffffffffff1916827bffffffffffffffffffffffffffffffffffffffffffffffffffffffff19161480610ada5750610ad982612a7a565b5b9050919050565b606060008054610af090615250565b80601f0160208091040260200160405190810160405280929190818152602001828054610b1c90615250565b8015610b695780601f10610b3e57610100808354040283529160200191610b69565b820191906000526020600020905b815481529060010190602001808311610b4c57829003601f168201915b5050505050905090565b6000610b7e82612b5c565b610bbd576040517f08c379a0000000000000000000000000000000000000000000000000000000008152600401610bb490614d55565b60405180910390fd5b6004600083815260200190815260200160002060009054906101000a900473ffffffffffffffffffffffffffffffffffffffff169050919050565b6000610c0382611527565b90508073ffffffffffffffffffffffffffffffffffffffff168373ffffffffffffffffffffffffffffffffffffffff161415610c74576040517f08c379a0000000000000000000000000000000000000000000000000000000008152600401610c6b90614dd5565b60405180910390fd5b8073ffffffffffffffffffffffffffffffffffffffff16610c93612bc8565b73ffffffffffffffffffffffffffffffffffffffff161480610cc25750610cc181610cbc612bc8565b6128a8565b5b610d01576040517f08c379a0000000000000000000000000000000000000000000000000000000008152600401610cf890614c55565b60405180910390fd5b610d0b8383612bd0565b505050565b600e5481565b6000600880549050905090565b610d34610d2e612bc8565b82612c89565b610d73576040517f08c379a0000000000000000000000000000000000000000000000000000000008152600401610d6a90614e15565b60405180910390fd5b610d7e838383612d67565b505050565b600c5481565b6000610d948361197e565b8210610dd5576040517f08c379a0000000000000000000000000000000000000000000000000000000008152600401610dcc90614b15565b60405180910390fd5b600660008473ffffffffffffffffffffffffffffffffffffffff1673ffffffffffffffffffffffffffffffffffffffff168152602001908152602001600020600083815260200190815260200160002054905092915050565b610e36612bc8565b73ffffffffffffffffffffffffffffffffffffffff16610e54611d51565b73ffffffffffffffffffffffffffffffffffffffff1614610eaa576040517f08c379a0000000000000000000000000000000000000000000000000000000008152600401610ea190614d75565b60405180910390fd5b600e5481600c54610ebb919061503d565b1115610efc576040517f08c379a0000000000000000000000000000000000000000000000000000000008152600401610ef390614db5565b60405180910390fd5b610f04612bc8565b73ffffffffffffffffffffffffffffffffffffffff167f4c209b5fc8ad50758f13e2e1088ba56a560dff690a1c6fef26394f4c03821c4f6001600c54610f4a919061503d565b83604051610f59929190614ed0565b60405180910390a260005b81811015610fb257610f9f610f77612bc8565b600c6000815480929190610f8a906152b3565b919050556001610f9a919061503d565b612fc3565b8080610faa906152b3565b915050610f64565b5050565b600f5481565b610fd783838360405180602001604052806000815250612766565b505050565b6000610fe6610d16565b8210611027576040517f08c379a000000000000000000000000000000000000000000000000000000000815260040161101e90614e55565b60405180910390fd5b60088281548110611061577f4e487b7100000000000000000000000000000000000000000000000000000000600052603260045260246000fd5b90600052602060002001549050919050565b61107b612bc8565b73ffffffffffffffffffffffffffffffffffffffff16611099611d51565b73ffffffffffffffffffffffffffffffffffffffff16146110ef576040517f08c379a00000000000000000000000000000000000000000000000000000000081526004016110e690614d75565b60405180910390fd5b8060159080519060200190611105929190613c72565b5050565b601660019054906101000a900460ff16611158576040517f08c379a000000000000000000000000000000000000000000000000000000000815260040161114f90614bf5565b60405180910390fd5b600e5482600c54611169919061503d565b11156111aa576040517f08c379a00000000000000000000000000000000000000000000000000000000081526004016111a190614cf5565b60405180910390fd5b601454826111b891906150c4565b8110156111fa576040517f08c379a00000000000000000000000000000000000000000000000000000000081526004016111f190614e95565b60405180910390fd5b600b60003373ffffffffffffffffffffffffffffffffffffffff1673ffffffffffffffffffffffffffffffffffffffff16815260200190815260200160002060009054906101000a900460ff16611286576040517f08c379a000000000000000000000000000000000000000000000000000000000815260040161127d90614e35565b60405180910390fd5b6010548211156112cb576040517f08c379a00000000000000000000000000000000000000000000000000000000081526004016112c290614af5565b60405180910390fd5b601054601860009054906101000a900473ffffffffffffffffffffffffffffffffffffffff1673ffffffffffffffffffffffffffffffffffffffff166370a08231336040518263ffffffff1660e01b81526004016113299190614979565b60206040518083038186803b15801561134157600080fd5b505afa158015611355573d6000803e3d6000fd5b505050506040513d601f19601f820116820180604052508101906113799190614293565b11156113ba576040517f08c379a00000000000000000000000000000000000000000000000000000000081526004016113b190614cd5565b60405180910390fd5b601760009054906101000a900473ffffffffffffffffffffffffffffffffffffffff1673ffffffffffffffffffffffffffffffffffffffff166323b872dd3330846040518463ffffffff1660e01b815260040161141993929190614994565b602060405180830381600087803b15801561143357600080fd5b505af1158015611447573d6000803e3d6000fd5b505050506040513d601f19601f8201168201806040525081019061146b91906141ae565b50611474612bc8565b73ffffffffffffffffffffffffffffffffffffffff167f4c209b5fc8ad50758f13e2e1088ba56a560dff690a1c6fef26394f4c03821c4f6001600c546114ba919061503d565b846040516114c9929190614ed0565b60405180910390a260005b828110156115225761150f6114e7612bc8565b600c60008154809291906114fa906152b3565b91905055600161150a919061503d565b612fc3565b808061151a906152b3565b9150506114d4565b505050565b6000806002600084815260200190815260200160002060009054906101000a900473ffffffffffffffffffffffffffffffffffffffff169050600073ffffffffffffffffffffffffffffffffffffffff168173ffffffffffffffffffffffffffffffffffffffff1614156115d0576040517f08c379a00000000000000000000000000000000000000000000000000000000081526004016115c790614c95565b60405180910390fd5b80915050919050565b6115e1612bc8565b73ffffffffffffffffffffffffffffffffffffffff166115ff611d51565b73ffffffffffffffffffffffffffffffffffffffff1614611655576040517f08c379a000000000000000000000000000000000000000000000000000000000815260040161164c90614d75565b60405180910390fd5b80601660026101000a81548160ff02191690831515021790555050565b61167a612bc8565b73ffffffffffffffffffffffffffffffffffffffff16611698611d51565b73ffffffffffffffffffffffffffffffffffffffff16146116ee576040517f08c379a00000000000000000000000000000000000000000000000000000000081526004016116e590614d75565b60405180910390fd5b6000601760009054906101000a900473ffffffffffffffffffffffffffffffffffffffff1673ffffffffffffffffffffffffffffffffffffffff166370a08231306040518263ffffffff1660e01b815260040161174b9190614979565b60206040518083038186803b15801561176357600080fd5b505afa158015611777573d6000803e3d6000fd5b505050506040513d601f19601f8201168201806040525081019061179b9190614293565b9050601760009054906101000a900473ffffffffffffffffffffffffffffffffffffffff1673ffffffffffffffffffffffffffffffffffffffff1663a9059cbb6117e3612bc8565b836040518363ffffffff1660e01b8152600401611801929190614a17565b602060405180830381600087803b15801561181b57600080fd5b505af115801561182f573d6000803e3d6000fd5b505050506040513d601f19601f8201168201806040525081019061185391906141ae565b5050565b61185f612bc8565b73ffffffffffffffffffffffffffffffffffffffff1661187d611d51565b73ffffffffffffffffffffffffffffffffffffffff16146118d3576040517f08c379a00000000000000000000000000000000000000000000000000000000081526004016118ca90614d75565b60405180910390fd5b80601660006101000a81548160ff02191690831515021790555050565b601580546118fd90615250565b80601f016020809104026020016040519081016040528092919081815260200182805461192990615250565b80156119765780601f1061194b57610100808354040283529160200191611976565b820191906000526020600020905b81548152906001019060200180831161195957829003601f168201915b505050505081565b60008073ffffffffffffffffffffffffffffffffffffffff168273ffffffffffffffffffffffffffffffffffffffff1614156119ef576040517f08c379a00000000000000000000000000000000000000000000000000000000081526004016119e690614c75565b60405180910390fd5b600360008373ffffffffffffffffffffffffffffffffffffffff1673ffffffffffffffffffffffffffffffffffffffff168152602001908152602001600020549050919050565b611a3e612bc8565b73ffffffffffffffffffffffffffffffffffffffff16611a5c611d51565b73ffffffffffffffffffffffffffffffffffffffff1614611ab2576040517f08c379a0000000000000000000000000000000000000000000000000000000008152600401611aa990614d75565b60405180910390fd5b611abc6000613191565b565b611ac6612bc8565b73ffffffffffffffffffffffffffffffffffffffff16611ae4611d51565b73ffffffffffffffffffffffffffffffffffffffff1614611b3a576040517f08c379a0000000000000000000000000000000000000000000000000000000008152600401611b3190614d75565b60405180910390fd5b60005b82829050811015611c00576001600b6000858585818110611b87577f4e487b7100000000000000000000000000000000000000000000000000000000600052603260045260246000fd5b9050602002016020810190611b9c9190613f58565b73ffffffffffffffffffffffffffffffffffffffff1673ffffffffffffffffffffffffffffffffffffffff16815260200190815260200160002060006101000a81548160ff0219169083151502179055508080611bf8906152b3565b915050611b3d565b505050565b601660039054906101000a900473ffffffffffffffffffffffffffffffffffffffff1681565b60606000611c388361197e565b905060008167ffffffffffffffff811115611c7c577f4e487b7100000000000000000000000000000000000000000000000000000000600052604160045260246000fd5b604051908082528060200260200182016040528015611caa5781602001602082028036833780820191505090505b50905060005b82811015611d1a57611cc28582610d89565b828281518110611cfb577f4e487b7100000000000000000000000000000000000000000000000000000000600052603260045260246000fd5b6020026020010181815250508080611d12906152b3565b915050611cb0565b508092505050919050565b601960009054906101000a900473ffffffffffffffffffffffffffffffffffffffff1681565b60145481565b6000600a60009054906101000a900473ffffffffffffffffffffffffffffffffffffffff16905090565b611d83612bc8565b73ffffffffffffffffffffffffffffffffffffffff16611da1611d51565b73ffffffffffffffffffffffffffffffffffffffff1614611df7576040517f08c379a0000000000000000000000000000000000000000000000000000000008152600401611dee90614d75565b60405180910390fd5b80601660016101000a81548160ff02191690831515021790555050565b606060018054611e2390615250565b80601f0160208091040260200160405190810160405280929190818152602001828054611e4f90615250565b8015611e9c5780601f10611e7157610100808354040283529160200191611e9c565b820191906000526020600020905b815481529060010190602001808311611e7f57829003601f168201915b5050505050905090565b601660009054906101000a900460ff16611ef5576040517f08c379a0000000000000000000000000000000000000000000000000000000008152600401611eec90614bf5565b60405180910390fd5b600e5482600c54611f06919061503d565b1115611f47576040517f08c379a0000000000000000000000000000000000000000000000000000000008152600401611f3e90614cf5565b60405180910390fd5b60145482611f5591906150c4565b811015611f97576040517f08c379a0000000000000000000000000000000000000000000000000000000008152600401611f8e90614e95565b60405180910390fd5b6000601960009054906101000a900473ffffffffffffffffffffffffffffffffffffffff1673ffffffffffffffffffffffffffffffffffffffff1663e3a9db1a336040518263ffffffff1660e01b8152600401611ff49190614979565b60006040518083038186803b15801561200c57600080fd5b505afa158015612020573d6000803e3d6000fd5b505050506040513d6000823e3d601f19601f820116820180604052508101906120499190614144565b5190506000601660039054906101000a900473ffffffffffffffffffffffffffffffffffffffff1673ffffffffffffffffffffffffffffffffffffffff166370a08231336040518263ffffffff1660e01b81526004016120a99190614979565b60206040518083038186803b1580156120c157600080fd5b505afa1580156120d5573d6000803e3d6000fd5b505050506040513d601f19601f820116820180604052508101906120f99190614293565b11806121055750600081115b612144576040517f08c379a000000000000000000000000000000000000000000000000000000000815260040161213b90614b95565b60405180910390fd5b601154831115612189576040517f08c379a000000000000000000000000000000000000000000000000000000000815260040161218090614af5565b60405180910390fd5b601154601860009054906101000a900473ffffffffffffffffffffffffffffffffffffffff1673ffffffffffffffffffffffffffffffffffffffff166370a08231336040518263ffffffff1660e01b81526004016121e79190614979565b60206040518083038186803b1580156121ff57600080fd5b505afa158015612213573d6000803e3d6000fd5b505050506040513d601f19601f820116820180604052508101906122379190614293565b1115612278576040517f08c379a000000000000000000000000000000000000000000000000000000000815260040161226f90614cd5565b60405180910390fd5b601760009054906101000a900473ffffffffffffffffffffffffffffffffffffffff1673ffffffffffffffffffffffffffffffffffffffff166323b872dd3330856040518463ffffffff1660e01b81526004016122d793929190614994565b602060405180830381600087803b1580156122f157600080fd5b505af1158015612305573d6000803e3d6000fd5b505050506040513d601f19601f8201168201806040525081019061232991906141ae565b50612332612bc8565b73ffffffffffffffffffffffffffffffffffffffff167f4c209b5fc8ad50758f13e2e1088ba56a560dff690a1c6fef26394f4c03821c4f6001600c54612378919061503d565b85604051612387929190614ed0565b60405180910390a260005b838110156123e0576123cd6123a5612bc8565b600c60008154809291906123b8906152b3565b9190505560016123c8919061503d565b612fc3565b80806123d8906152b3565b915050612392565b50505050565b60135481565b601660029054906101000a900460ff1661243b576040517f08c379a000000000000000000000000000000000000000000000000000000000815260040161243290614e75565b60405180910390fd5b60008111801561244d57506011548111155b61248c576040517f08c379a000000000000000000000000000000000000000000000000000000000815260040161248390614ad5565b60405180910390fd5b601154601860009054906101000a900473ffffffffffffffffffffffffffffffffffffffff1673ffffffffffffffffffffffffffffffffffffffff166370a08231336040518263ffffffff1660e01b81526004016124ea9190614979565b60206040518083038186803b15801561250257600080fd5b505afa158015612516573d6000803e3d6000fd5b505050506040513d601f19601f8201168201806040525081019061253a9190614293565b111561257b576040517f08c379a000000000000000000000000000000000000000000000000000000000815260040161257290614cb5565b60405180910390fd5b60125481600c5461258c919061503d565b11156125cd576040517f08c379a00000000000000000000000000000000000000000000000000000000081526004016125c490614c15565b60405180910390fd5b601354816125db91906150c4565b341461261c576040517f08c379a000000000000000000000000000000000000000000000000000000000815260040161261390614df5565b60405180910390fd5b612624611d51565b73ffffffffffffffffffffffffffffffffffffffff166108fc349081150290604051600060405180830381858888f19350505050158015612669573d6000803e3d6000fd5b50612672612bc8565b73ffffffffffffffffffffffffffffffffffffffff167f4c209b5fc8ad50758f13e2e1088ba56a560dff690a1c6fef26394f4c03821c4f6001600c546126b8919061503d565b836040516126c7929190614ed0565b60405180910390a260005b818110156127205761270d6126e5612bc8565b600c60008154809291906126f8906152b3565b919050556001612708919061503d565b612fc3565b8080612718906152b3565b9150506126d2565b5050565b61273661272f612bc8565b8383613257565b5050565b601760009054906101000a900473ffffffffffffffffffffffffffffffffffffffff1681565b60125481565b612777612771612bc8565b83612c89565b6127b6576040517f08c379a00000000000000000000000000000000000000000000000000000000081526004016127ad90614e15565b60405180910390fd5b6127c2848484846133c4565b50505050565b60105481565b60606127d982612b5c565b612818576040517f08c379a000000000000000000000000000000000000000000000000000000000815260040161280f90614d15565b60405180910390fd5b60006015805461282790615250565b905011612869576040518060400160405280600581526020017f2e6a736f6e000000000000000000000000000000000000000000000000000000815250612895565b601561287483613420565b60405160200161288592919061494a565b6040516020818303038152906040525b9050919050565b60115481565b600d5481565b6000600560008473ffffffffffffffffffffffffffffffffffffffff1673ffffffffffffffffffffffffffffffffffffffff16815260200190815260200160002060008373ffffffffffffffffffffffffffffffffffffffff1673ffffffffffffffffffffffffffffffffffffffff16815260200190815260200160002060009054906101000a900460ff16905092915050565b600b6020528060005260406000206000915054906101000a900460ff1681565b612964612bc8565b73ffffffffffffffffffffffffffffffffffffffff16612982611d51565b73ffffffffffffffffffffffffffffffffffffffff16146129d8576040517f08c379a00000000000000000000000000000000000000000000000000000000081526004016129cf90614d75565b60405180910390fd5b600073ffffffffffffffffffffffffffffffffffffffff168173ffffffffffffffffffffffffffffffffffffffff161415612a48576040517f08c379a0000000000000000000000000000000000000000000000000000000008152600401612a3f90614b55565b60405180910390fd5b612a5181613191565b50565b601860009054906101000a900473ffffffffffffffffffffffffffffffffffffffff1681565b60007f80ac58cd000000000000000000000000000000000000000000000000000000007bffffffffffffffffffffffffffffffffffffffffffffffffffffffff1916827bffffffffffffffffffffffffffffffffffffffffffffffffffffffff19161480612b4557507f5b5e139f000000000000000000000000000000000000000000000000000000007bffffffffffffffffffffffffffffffffffffffffffffffffffffffff1916827bffffffffffffffffffffffffffffffffffffffffffffffffffffffff1916145b80612b555750612b54826135cd565b5b9050919050565b60008073ffffffffffffffffffffffffffffffffffffffff166002600084815260200190815260200160002060009054906101000a900473ffffffffffffffffffffffffffffffffffffffff1673ffffffffffffffffffffffffffffffffffffffff1614159050919050565b600033905090565b816004600083815260200190815260200160002060006101000a81548173ffffffffffffffffffffffffffffffffffffffff021916908373ffffffffffffffffffffffffffffffffffffffff160217905550808273ffffffffffffffffffffffffffffffffffffffff16612c4383611527565b73ffffffffffffffffffffffffffffffffffffffff167f8c5be1e5ebec7d5bd14f71427d1e84f3dd0314c0f7b2291e5b200ac8c7c3b92560405160405180910390a45050565b6000612c9482612b5c565b612cd3576040517f08c379a0000000000000000000000000000000000000000000000000000000008152600401612cca90614c35565b60405180910390fd5b6000612cde83611527565b90508073ffffffffffffffffffffffffffffffffffffffff168473ffffffffffffffffffffffffffffffffffffffff161480612d4d57508373ffffffffffffffffffffffffffffffffffffffff16612d3584610b73565b73ffffffffffffffffffffffffffffffffffffffff16145b80612d5e5750612d5d81856128a8565b5b91505092915050565b8273ffffffffffffffffffffffffffffffffffffffff16612d8782611527565b73ffffffffffffffffffffffffffffffffffffffff1614612ddd576040517f08c379a0000000000000000000000000000000000000000000000000000000008152600401612dd490614d95565b60405180910390fd5b600073ffffffffffffffffffffffffffffffffffffffff168273ffffffffffffffffffffffffffffffffffffffff161415612e4d576040517f08c379a0000000000000000000000000000000000000000000000000000000008152600401612e4490614bb5565b60405180910390fd5b612e58838383613637565b612e63600082612bd0565b6001600360008573ffffffffffffffffffffffffffffffffffffffff1673ffffffffffffffffffffffffffffffffffffffff1681526020019081526020016000206000828254612eb3919061511e565b925050819055506001600360008473ffffffffffffffffffffffffffffffffffffffff1673ffffffffffffffffffffffffffffffffffffffff1681526020019081526020016000206000828254612f0a919061503d565b92505081905550816002600083815260200190815260200160002060006101000a81548173ffffffffffffffffffffffffffffffffffffffff021916908373ffffffffffffffffffffffffffffffffffffffff160217905550808273ffffffffffffffffffffffffffffffffffffffff168473ffffffffffffffffffffffffffffffffffffffff167fddf252ad1be2c89b69c2b068fc378daa952ba7f163c4a11628f55a4df523b3ef60405160405180910390a4505050565b600073ffffffffffffffffffffffffffffffffffffffff168273ffffffffffffffffffffffffffffffffffffffff161415613033576040517f08c379a000000000000000000000000000000000000000000000000000000000815260040161302a90614d35565b60405180910390fd5b61303c81612b5c565b1561307c576040517f08c379a000000000000000000000000000000000000000000000000000000000815260040161307390614b75565b60405180910390fd5b61308860008383613637565b6001600360008473ffffffffffffffffffffffffffffffffffffffff1673ffffffffffffffffffffffffffffffffffffffff16815260200190815260200160002060008282546130d8919061503d565b92505081905550816002600083815260200190815260200160002060006101000a81548173ffffffffffffffffffffffffffffffffffffffff021916908373ffffffffffffffffffffffffffffffffffffffff160217905550808273ffffffffffffffffffffffffffffffffffffffff16600073ffffffffffffffffffffffffffffffffffffffff167fddf252ad1be2c89b69c2b068fc378daa952ba7f163c4a11628f55a4df523b3ef60405160405180910390a45050565b6000600a60009054906101000a900473ffffffffffffffffffffffffffffffffffffffff16905081600a60006101000a81548173ffffffffffffffffffffffffffffffffffffffff021916908373ffffffffffffffffffffffffffffffffffffffff1602179055508173ffffffffffffffffffffffffffffffffffffffff168173ffffffffffffffffffffffffffffffffffffffff167f8be0079c531659141344cd1fd0a4f28419497f9722a3daafe3b4186f6b6457e060405160405180910390a35050565b8173ffffffffffffffffffffffffffffffffffffffff168373ffffffffffffffffffffffffffffffffffffffff1614156132c6576040517f08c379a00000000000000000000000000000000000000000000000000000000081526004016132bd90614bd5565b60405180910390fd5b80600560008573ffffffffffffffffffffffffffffffffffffffff1673ffffffffffffffffffffffffffffffffffffffff16815260200190815260200160002060008473ffffffffffffffffffffffffffffffffffffffff1673ffffffffffffffffffffffffffffffffffffffff16815260200190815260200160002060006101000a81548160ff0219169083151502179055508173ffffffffffffffffffffffffffffffffffffffff168373ffffffffffffffffffffffffffffffffffffffff167f17307eab39ab6107e8899845ad3d59bd9653f200f220920489ca2b5937696c31836040516133b79190614a62565b60405180910390a3505050565b6133cf848484612d67565b6133db8484848461374b565b61341a576040517f08c379a000000000000000000000000000000000000000000000000000000000815260040161341190614b35565b60405180910390fd5b50505050565b60606000821415613468576040518060400160405280600181526020017f300000000000000000000000000000000000000000000000000000000000000081525090506135c8565b600082905060005b6000821461349a578080613483906152b3565b915050600a826134939190615093565b9150613470565b60008167ffffffffffffffff8111156134dc577f4e487b7100000000000000000000000000000000000000000000000000000000600052604160045260246000fd5b6040519080825280601f01601f19166020018201604052801561350e5781602001600182028036833780820191505090505b5090505b600085146135c157600182613527919061511e565b9150600a8561353691906152fc565b6030613542919061503d565b60f81b81838151811061357e577f4e487b7100000000000000000000000000000000000000000000000000000000600052603260045260246000fd5b60200101907effffffffffffffffffffffffffffffffffffffffffffffffffffffffffffff1916908160001a905350600a856135ba9190615093565b9450613512565b8093505050505b919050565b60007f01ffc9a7000000000000000000000000000000000000000000000000000000007bffffffffffffffffffffffffffffffffffffffffffffffffffffffff1916827bffffffffffffffffffffffffffffffffffffffffffffffffffffffff1916149050919050565b6136428383836138e2565b600073ffffffffffffffffffffffffffffffffffffffff168373ffffffffffffffffffffffffffffffffffffffff16141561368557613680816138e7565b6136c4565b8173ffffffffffffffffffffffffffffffffffffffff168373ffffffffffffffffffffffffffffffffffffffff16146136c3576136c28382613930565b5b5b600073ffffffffffffffffffffffffffffffffffffffff168273ffffffffffffffffffffffffffffffffffffffff1614156137075761370281613a9d565b613746565b8273ffffffffffffffffffffffffffffffffffffffff168273ffffffffffffffffffffffffffffffffffffffff1614613745576137448282613be0565b5b5b505050565b600061376c8473ffffffffffffffffffffffffffffffffffffffff16613c5f565b156138d5578373ffffffffffffffffffffffffffffffffffffffff1663150b7a02613795612bc8565b8786866040518563ffffffff1660e01b81526004016137b794939291906149cb565b602060405180830381600087803b1580156137d157600080fd5b505af192505050801561380257506040513d601f19601f820116820180604052508101906137ff9190614200565b60015b613885573d8060008114613832576040519150601f19603f3d011682016040523d82523d6000602084013e613837565b606091505b5060008151141561387d576040517f08c379a000000000000000000000000000000000000000000000000000000000815260040161387490614b35565b60405180910390fd5b805181602001fd5b63150b7a0260e01b7bffffffffffffffffffffffffffffffffffffffffffffffffffffffff1916817bffffffffffffffffffffffffffffffffffffffffffffffffffffffff1916149150506138da565b600190505b949350505050565b505050565b6008805490506009600083815260200190815260200160002081905550600881908060018154018082558091505060019003906000526020600020016000909190919091505550565b6000600161393d8461197e565b613947919061511e565b9050600060076000848152602001908152602001600020549050818114613a2c576000600660008673ffffffffffffffffffffffffffffffffffffffff1673ffffffffffffffffffffffffffffffffffffffff168152602001908152602001600020600084815260200190815260200160002054905080600660008773ffffffffffffffffffffffffffffffffffffffff1673ffffffffffffffffffffffffffffffffffffffff168152602001908152602001600020600084815260200190815260200160002081905550816007600083815260200190815260200160002081905550505b6007600084815260200190815260200160002060009055600660008573ffffffffffffffffffffffffffffffffffffffff1673ffffffffffffffffffffffffffffffffffffffff16815260200190815260200160002060008381526020019081526020016000206000905550505050565b60006001600880549050613ab1919061511e565b9050600060096000848152602001908152602001600020549050600060088381548110613b07577f4e487b7100000000000000000000000000000000000000000000000000000000600052603260045260246000fd5b906000526020600020015490508060088381548110613b4f577f4e487b7100000000000000000000000000000000000000000000000000000000600052603260045260246000fd5b906000526020600020018190555081600960008381526020019081526020016000208190555060096000858152602001908152602001600020600090556008805480613bc4577f4e487b7100000000000000000000000000000000000000000000000000000000600052603160045260246000fd5b6001900381819060005260206000200160009055905550505050565b6000613beb8361197e565b905081600660008573ffffffffffffffffffffffffffffffffffffffff1673ffffffffffffffffffffffffffffffffffffffff168152602001908152602001600020600083815260200190815260200160002081905550806007600084815260200190815260200160002081905550505050565b600080823b905060008111915050919050565b828054613c7e90615250565b90600052602060002090601f016020900481019282613ca05760008555613ce7565b82601f10613cb957805160ff1916838001178555613ce7565b82800160010185558215613ce7579182015b82811115613ce6578251825591602001919060010190613ccb565b5b509050613cf49190613cf8565b5090565b5b80821115613d11576000816000905550600101613cf9565b5090565b6000613d28613d2384614f1e565b614ef9565b90508083825260208201905082856020860282011115613d4757600080fd5b60005b85811015613d775781613d5d8882613f43565b845260208401935060208301925050600181019050613d4a565b5050509392505050565b6000613d94613d8f84614f4a565b614ef9565b905082815260208101848484011115613dac57600080fd5b613db784828561520e565b509392505050565b6000613dd2613dcd84614f7b565b614ef9565b905082815260208101848484011115613dea57600080fd5b613df584828561520e565b509392505050565b600081359050613e0c81615b2e565b92915050565b60008083601f840112613e2457600080fd5b8235905067ffffffffffffffff811115613e3d57600080fd5b602083019150836020820283011115613e5557600080fd5b9250929050565b600082601f830112613e6d57600080fd5b8151613e7d848260208601613d15565b91505092915050565b600081359050613e9581615b45565b92915050565b600081519050613eaa81615b45565b92915050565b600081359050613ebf81615b5c565b92915050565b600081519050613ed481615b5c565b92915050565b600082601f830112613eeb57600080fd5b8135613efb848260208601613d81565b91505092915050565b600082601f830112613f1557600080fd5b8135613f25848260208601613dbf565b91505092915050565b600081359050613f3d81615b73565b92915050565b600081519050613f5281615b73565b92915050565b600060208284031215613f6a57600080fd5b6000613f7884828501613dfd565b91505092915050565b60008060408385031215613f9457600080fd5b6000613fa285828601613dfd565b9250506020613fb385828601613dfd565b9150509250929050565b600080600060608486031215613fd257600080fd5b6000613fe086828701613dfd565b9350506020613ff186828701613dfd565b925050604061400286828701613f2e565b9150509250925092565b6000806000806080858703121561402257600080fd5b600061403087828801613dfd565b945050602061404187828801613dfd565b935050604061405287828801613f2e565b925050606085013567ffffffffffffffff81111561406f57600080fd5b61407b87828801613eda565b91505092959194509250565b6000806040838503121561409a57600080fd5b60006140a885828601613dfd565b92505060206140b985828601613e86565b9150509250929050565b600080604083850312156140d657600080fd5b60006140e485828601613dfd565b92505060206140f585828601613f2e565b9150509250929050565b6000806020838503121561411257600080fd5b600083013567ffffffffffffffff81111561412c57600080fd5b61413885828601613e12565b92509250509250929050565b60006020828403121561415657600080fd5b600082015167ffffffffffffffff81111561417057600080fd5b61417c84828501613e5c565b91505092915050565b60006020828403121561419757600080fd5b60006141a584828501613e86565b91505092915050565b6000602082840312156141c057600080fd5b60006141ce84828501613e9b565b91505092915050565b6000602082840312156141e957600080fd5b60006141f784828501613eb0565b91505092915050565b60006020828403121561421257600080fd5b600061422084828501613ec5565b91505092915050565b60006020828403121561423b57600080fd5b600082013567ffffffffffffffff81111561425557600080fd5b61426184828501613f04565b91505092915050565b60006020828403121561427c57600080fd5b600061428a84828501613f2e565b91505092915050565b6000602082840312156142a557600080fd5b60006142b384828501613f43565b91505092915050565b600080604083850312156142cf57600080fd5b60006142dd85828601613f2e565b92505060206142ee85828601613f2e565b9150509250929050565b6000614304838361492c565b60208301905092915050565b61431981615152565b82525050565b600061432a82614fd1565b6143348185614fff565b935061433f83614fac565b8060005b8381101561437057815161435788826142f8565b975061436283614ff2565b925050600181019050614343565b5085935050505092915050565b61438681615164565b82525050565b600061439782614fdc565b6143a18185615010565b93506143b181856020860161521d565b6143ba816153e9565b840191505092915050565b6143ce816151c6565b82525050565b6143dd816151ea565b82525050565b60006143ee82614fe7565b6143f88185615021565b935061440881856020860161521d565b614411816153e9565b840191505092915050565b600061442782614fe7565b6144318185615032565b935061444181856020860161521d565b80840191505092915050565b6000815461445a81615250565b6144648186615032565b9450600182166000811461447f5760018114614490576144c3565b60ff198316865281860193506144c3565b61449985614fbc565b60005b838110156144bb5781548189015260018201915060208101905061449c565b838801955050505b50505092915050565b60006144d9600e83615021565b91506144e4826153fa565b602082019050919050565b60006144fc601783615021565b915061450782615423565b602082019050919050565b600061451f602b83615021565b915061452a8261544c565b604082019050919050565b6000614542603283615021565b915061454d8261549b565b604082019050919050565b6000614565602683615021565b9150614570826154ea565b604082019050919050565b6000614588601c83615021565b915061459382615539565b602082019050919050565b60006145ab601c83615021565b91506145b682615562565b602082019050919050565b60006145ce602483615021565b91506145d98261558b565b604082019050919050565b60006145f1601983615021565b91506145fc826155da565b602082019050919050565b6000614614601883615021565b915061461f82615603565b602082019050919050565b6000614637600e83615021565b91506146428261562c565b602082019050919050565b600061465a602c83615021565b915061466582615655565b604082019050919050565b600061467d603883615021565b9150614688826156a4565b604082019050919050565b60006146a0602a83615021565b91506146ab826156f3565b604082019050919050565b60006146c3602983615021565b91506146ce82615742565b604082019050919050565b60006146e6601783615021565b91506146f182615791565b602082019050919050565b6000614709601783615021565b9150614714826157ba565b602082019050919050565b600061472c601683615021565b9150614737826157e3565b602082019050919050565b600061474f601783615021565b915061475a8261580c565b602082019050919050565b6000614772602083615021565b915061477d82615835565b602082019050919050565b6000614795602c83615021565b91506147a08261585e565b604082019050919050565b60006147b8600583615032565b91506147c3826158ad565b600582019050919050565b60006147db602083615021565b91506147e6826158d6565b602082019050919050565b60006147fe602983615021565b9150614809826158ff565b604082019050919050565b6000614821601283615021565b915061482c8261594e565b602082019050919050565b6000614844602183615021565b915061484f82615977565b604082019050919050565b6000614867602083615021565b9150614872826159c6565b602082019050919050565b600061488a603183615021565b9150614895826159ef565b604082019050919050565b60006148ad601c83615021565b91506148b882615a3e565b602082019050919050565b60006148d0602c83615021565b91506148db82615a67565b604082019050919050565b60006148f3602183615021565b91506148fe82615ab6565b604082019050919050565b6000614916601f83615021565b915061492182615b05565b602082019050919050565b614935816151bc565b82525050565b614944816151bc565b82525050565b6000614956828561444d565b9150614962828461441c565b915061496d826147ab565b91508190509392505050565b600060208201905061498e6000830184614310565b92915050565b60006060820190506149a96000830186614310565b6149b66020830185614310565b6149c3604083018461493b565b949350505050565b60006080820190506149e06000830187614310565b6149ed6020830186614310565b6149fa604083018561493b565b8181036060830152614a0c818461438c565b905095945050505050565b6000604082019050614a2c6000830185614310565b614a39602083018461493b565b9392505050565b60006020820190508181036000830152614a5a818461431f565b905092915050565b6000602082019050614a77600083018461437d565b92915050565b6000602082019050614a9260008301846143c5565b92915050565b6000602082019050614aad60008301846143d4565b92915050565b60006020820190508181036000830152614acd81846143e3565b905092915050565b60006020820190508181036000830152614aee816144cc565b9050919050565b60006020820190508181036000830152614b0e816144ef565b9050919050565b60006020820190508181036000830152614b2e81614512565b9050919050565b60006020820190508181036000830152614b4e81614535565b9050919050565b60006020820190508181036000830152614b6e81614558565b9050919050565b60006020820190508181036000830152614b8e8161457b565b9050919050565b60006020820190508181036000830152614bae8161459e565b9050919050565b60006020820190508181036000830152614bce816145c1565b9050919050565b60006020820190508181036000830152614bee816145e4565b9050919050565b60006020820190508181036000830152614c0e81614607565b9050919050565b60006020820190508181036000830152614c2e8161462a565b9050919050565b60006020820190508181036000830152614c4e8161464d565b9050919050565b60006020820190508181036000830152614c6e81614670565b9050919050565b60006020820190508181036000830152614c8e81614693565b9050919050565b60006020820190508181036000830152614cae816146b6565b9050919050565b60006020820190508181036000830152614cce816146d9565b9050919050565b60006020820190508181036000830152614cee816146fc565b9050919050565b60006020820190508181036000830152614d0e8161471f565b9050919050565b60006020820190508181036000830152614d2e81614742565b9050919050565b60006020820190508181036000830152614d4e81614765565b9050919050565b60006020820190508181036000830152614d6e81614788565b9050919050565b60006020820190508181036000830152614d8e816147ce565b9050919050565b60006020820190508181036000830152614dae816147f1565b9050919050565b60006020820190508181036000830152614dce81614814565b9050919050565b60006020820190508181036000830152614dee81614837565b9050919050565b60006020820190508181036000830152614e0e8161485a565b9050919050565b60006020820190508181036000830152614e2e8161487d565b9050919050565b60006020820190508181036000830152614e4e816148a0565b9050919050565b60006020820190508181036000830152614e6e816148c3565b9050919050565b60006020820190508181036000830152614e8e816148e6565b9050919050565b60006020820190508181036000830152614eae81614909565b9050919050565b6000602082019050614eca600083018461493b565b92915050565b6000604082019050614ee5600083018561493b565b614ef2602083018461493b565b9392505050565b6000614f03614f14565b9050614f0f8282615282565b919050565b6000604051905090565b600067ffffffffffffffff821115614f3957614f386153ba565b5b602082029050602081019050919050565b600067ffffffffffffffff821115614f6557614f646153ba565b5b614f6e826153e9565b9050602081019050919050565b600067ffffffffffffffff821115614f9657614f956153ba565b5b614f9f826153e9565b9050602081019050919050565b6000819050602082019050919050565b60008190508160005260206000209050919050565b600081519050919050565b600081519050919050565b600081519050919050565b6000602082019050919050565b600082825260208201905092915050565b600082825260208201905092915050565b600082825260208201905092915050565b600081905092915050565b6000615048826151bc565b9150615053836151bc565b9250827fffffffffffffffffffffffffffffffffffffffffffffffffffffffffffffffff038211156150885761508761532d565b5b828201905092915050565b600061509e826151bc565b91506150a9836151bc565b9250826150b9576150b861535c565b5b828204905092915050565b60006150cf826151bc565b91506150da836151bc565b9250817fffffffffffffffffffffffffffffffffffffffffffffffffffffffffffffffff04831182151516156151135761511261532d565b5b828202905092915050565b6000615129826151bc565b9150615134836151bc565b9250828210156151475761514661532d565b5b828203905092915050565b600061515d8261519c565b9050919050565b60008115159050919050565b60007fffffffff0000000000000000000000000000000000000000000000000000000082169050919050565b600073ffffffffffffffffffffffffffffffffffffffff82169050919050565b6000819050919050565b60006151d1826151d8565b9050919050565b60006151e38261519c565b9050919050565b60006151f5826151fc565b9050919050565b60006152078261519c565b9050919050565b82818337600083830152505050565b60005b8381101561523b578082015181840152602081019050615220565b8381111561524a576000848401525b50505050565b6000600282049050600182168061526857607f821691505b6020821081141561527c5761527b61538b565b5b50919050565b61528b826153e9565b810181811067ffffffffffffffff821117156152aa576152a96153ba565b5b80604052505050565b60006152be826151bc565b91507fffffffffffffffffffffffffffffffffffffffffffffffffffffffffffffffff8214156152f1576152f061532d565b5b600182019050919050565b6000615307826151bc565b9150615312836151bc565b9250826153225761532161535c565b5b828206905092915050565b7f4e487b7100000000000000000000000000000000000000000000000000000000600052601160045260246000fd5b7f4e487b7100000000000000000000000000000000000000000000000000000000600052601260045260246000fd5b7f4e487b7100000000000000000000000000000000000000000000000000000000600052602260045260246000fd5b7f4e487b7100000000000000000000000000000000000000000000000000000000600052604160045260246000fd5b6000601f19601f8301169050919050565b7f546f6f206d616e79206c616e6473000000000000000000000000000000000000600082015250565b7f63616e6e6f74206d696e74206d6f7265207468616e2033000000000000000000600082015250565b7f455243373231456e756d657261626c653a206f776e657220696e646578206f7560008201527f74206f6620626f756e6473000000000000000000000000000000000000000000602082015250565b7f4552433732313a207472616e7366657220746f206e6f6e20455243373231526560008201527f63656976657220696d706c656d656e7465720000000000000000000000000000602082015250565b7f4f776e61626c653a206e6577206f776e657220697320746865207a65726f206160008201527f6464726573730000000000000000000000000000000000000000000000000000602082015250565b7f4552433732313a20746f6b656e20616c7265616479206d696e74656400000000600082015250565b7f6d75737420686f6c64206174206c656173742031206675644661726d00000000600082015250565b7f4552433732313a207472616e7366657220746f20746865207a65726f2061646460008201527f7265737300000000000000000000000000000000000000000000000000000000602082015250565b7f4552433732313a20617070726f766520746f2063616c6c657200000000000000600082015250565b7f70726573616c6520686173206e6f7420737461727465642e0000000000000000600082015250565b7f414c4c20424f55474854204f5554000000000000000000000000000000000000600082015250565b7f4552433732313a206f70657261746f7220717565727920666f72206e6f6e657860008201527f697374656e7420746f6b656e0000000000000000000000000000000000000000602082015250565b7f4552433732313a20617070726f76652063616c6c6572206973206e6f74206f7760008201527f6e6572206e6f7220617070726f76656420666f7220616c6c0000000000000000602082015250565b7f4552433732313a2062616c616e636520717565727920666f7220746865207a6560008201527f726f206164647265737300000000000000000000000000000000000000000000602082015250565b7f4552433732313a206f776e657220717565727920666f72206e6f6e657869737460008201527f656e7420746f6b656e0000000000000000000000000000000000000000000000602082015250565b7f63616e6e6f742068617665206d6f7265207468616e2037000000000000000000600082015250565b7f63616e6e6f742068617665206d6f7265207468616e2033000000000000000000600082015250565b7f4578636565642063726f7020616c6c6f636174696f6e00000000000000000000600082015250565b7f746f6b656e496420646f6573206e6f742065786973742e000000000000000000600082015250565b7f4552433732313a206d696e7420746f20746865207a65726f2061646472657373600082015250565b7f4552433732313a20617070726f76656420717565727920666f72206e6f6e657860008201527f697374656e7420746f6b656e0000000000000000000000000000000000000000602082015250565b7f2e6a736f6e000000000000000000000000000000000000000000000000000000600082015250565b7f4f776e61626c653a2063616c6c6572206973206e6f7420746865206f776e6572600082015250565b7f4552433732313a207472616e73666572206f6620746f6b656e2074686174206960008201527f73206e6f74206f776e0000000000000000000000000000000000000000000000602082015250565b7f657863656564206d617820737570706c792e0000000000000000000000000000600082015250565b7f4552433732313a20617070726f76616c20746f2063757272656e74206f776e6560008201527f7200000000000000000000000000000000000000000000000000000000000000602082015250565b7f76616c7565206572726f722c20706c6561736520636865636b2070726963652e600082015250565b7f4552433732313a207472616e736665722063616c6c6572206973206e6f74206f60008201527f776e6572206e6f7220617070726f766564000000000000000000000000000000602082015250565b7f6d757374206265206f6e2070726573616c652077686974656c69737400000000600082015250565b7f455243373231456e756d657261626c653a20676c6f62616c20696e646578206f60008201527f7574206f6620626f756e64730000000000000000000000000000000000000000602082015250565b7f4c616e642073616c652061696e277420737461727465642c20706172746e657260008201527f2e00000000000000000000000000000000000000000000000000000000000000602082015250565b7f76616c7565206572726f722c20706c6561736520636865636b20707269636500600082015250565b615b3781615152565b8114615b4257600080fd5b50565b615b4e81615164565b8114615b5957600080fd5b50565b615b6581615170565b8114615b7057600080fd5b50565b615b7c816151bc565b8114615b8757600080fd5b5056fea2646970667358221220bf8b8fc7c2e2b8a6b54487f322055010943ff64363feae30fe30aa0ea8c2609764736f6c63430008040033",
  "linkReferences": {},
  "deployedLinkReferences": {}
}